Component: ARM Compiler 5.06 update 6 (build 750) Tool: armlink [4d35ed]

==============================================================================

Section Cross References

    startup_stm32f103xb.o(RESET) refers to startup_stm32f103xb.o(STACK) for __initial_sp
    startup_stm32f103xb.o(RESET) refers to startup_stm32f103xb.o(.text) for Reset_Handler
    startup_stm32f103xb.o(RESET) refers to stm32f1xx_it.o(i.NMI_Handler) for NMI_Handler
    startup_stm32f103xb.o(RESET) refers to stm32f1xx_it.o(i.HardFault_Handler) for HardFault_Handler
    startup_stm32f103xb.o(RESET) refers to stm32f1xx_it.o(i.MemManage_Handler) for MemManage_Handler
    startup_stm32f103xb.o(RESET) refers to stm32f1xx_it.o(i.BusFault_Handler) for BusFault_Handler
    startup_stm32f103xb.o(RESET) refers to stm32f1xx_it.o(i.UsageFault_Handler) for UsageFault_Handler
    startup_stm32f103xb.o(RESET) refers to port.o(.emb_text) for SVC_Handler
    startup_stm32f103xb.o(RESET) refers to stm32f1xx_it.o(i.DebugMon_Handler) for DebugMon_Handler
    startup_stm32f103xb.o(RESET) refers to stm32f1xx_it.o(i.SysTick_Handler) for SysTick_Handler
    startup_stm32f103xb.o(.text) refers to system_stm32f1xx.o(i.SystemInit) for SystemInit
    startup_stm32f103xb.o(.text) refers to entry.o(.ARM.Collect$$$$00000000) for __main
    stm32f1xx_hal_tim.o(i.HAL_TIM_Base_DeInit) refers to stm32f1xx_hal_msp.o(i.HAL_TIM_Base_MspDeInit) for HAL_TIM_Base_MspDeInit
    stm32f1xx_hal_tim.o(i.HAL_TIM_Base_Init) refers to stm32f1xx_hal_msp.o(i.HAL_TIM_Base_MspInit) for HAL_TIM_Base_MspInit
    stm32f1xx_hal_tim.o(i.HAL_TIM_Base_Init) refers to stm32f1xx_hal_tim.o(i.TIM_Base_SetConfig) for TIM_Base_SetConfig
    stm32f1xx_hal_tim.o(i.HAL_TIM_Base_Start_DMA) refers to stm32f1xx_hal_dma.o(i.HAL_DMA_Start_IT) for HAL_DMA_Start_IT
    stm32f1xx_hal_tim.o(i.HAL_TIM_Base_Start_DMA) refers to stm32f1xx_hal_tim.o(i.TIM_DMAPeriodElapsedCplt) for TIM_DMAPeriodElapsedCplt
    stm32f1xx_hal_tim.o(i.HAL_TIM_Base_Start_DMA) refers to stm32f1xx_hal_tim.o(i.TIM_DMAError) for TIM_DMAError
==============================================================================

Removing Unused input sections from the image.

    Removing startup_stm32f103xb.o(HEAP), (512 bytes).
    Removing stm32f1xx_hal_gpio_ex.o(.rev16_text), (4 bytes).
    Removing stm32f1xx_hal_gpio_ex.o(.revsh_text), (4 bytes).
    Removing stm32f1xx_hal_gpio_ex.o(.rrx_text), (6 bytes).
    Removing stm32f1xx_hal_gpio_ex.o(i.HAL_GPIOEx_ConfigEventout), (20 bytes).
    Removing stm32f1xx_hal_gpio_ex.o(i.HAL_GPIOEx_DisableEventout), (16 bytes).
    Removing stm32f1xx_hal_gpio_ex.o(i.HAL_GPIOEx_EnableEventout), (16 bytes).
    Removing stm32f1xx_hal_tim.o(.rev16_text), (4 bytes).
    Removing stm32f1xx_hal_tim.o(.revsh_text), (4 bytes).
    Removing stm32f1xx_hal_tim.o(.rrx_text), (6 bytes).
    Removing stm32f1xx_hal_tim.o(i.HAL_TIM_Base_DeInit), (56 bytes).
    Removing stm32f1xx_hal_tim.o(i.HAL_TIM_Base_GetState), (6 bytes).
    Removing stm32f1xx_hal_tim.o(i.HAL_TIM_Base_MspDeInit), (2 bytes).
    Removing stm32f1xx_hal_tim.o(i.HAL_TIM_Base_MspInit), (2 bytes).
    Removing stm32f1xx_hal_tim.o(i.HAL_TIM_Base_Start_DMA), (92 bytes).
    Removing stm32f1xx_hal_tim.o(i.HAL_TIM_Base_Start_IT), (24 bytes).
    Removing stm32f1xx_hal_tim.o(i.HAL_TIM_Base_Stop), (44 bytes).
    Removing stm32f1xx_hal_tim.o(i.HAL_TIM_Base_Stop_DMA), (48 bytes).
==============================================================================

Image Symbol Table

    Local Symbols

    Symbol Name                              Value     Ov Type        Size  Object(Section)

    ../Drivers/STM32F1xx_HAL_Driver/Src/stm32f1xx_hal.c 0x00000000   Number         0  stm32f1xx_hal.o ABSOLUTE
    ../Drivers/STM32F1xx_HAL_Driver/Src/stm32f1xx_hal_cortex.c 0x00000000   Number         0  stm32f1xx_hal_cortex.o ABSOLUTE
    ../Drivers/STM32F1xx_HAL_Driver/Src/stm32f1xx_hal_dma.c 0x00000000   Number         0  stm32f1xx_hal_dma.o ABSOLUTE
    ../Drivers/STM32F1xx_HAL_Driver/Src/stm32f1xx_hal_flash.c 0x00000000   Number         0  stm32f1xx_hal_flash.o ABSOLUTE
    ../Drivers/STM32F1xx_HAL_Driver/Src/stm32f1xx_hal_flash_ex.c 0x00000000   Number         0  stm32f1xx_hal_flash_ex.o ABSOLUTE
    ../Drivers/STM32F1xx_HAL_Driver/Src/stm32f1xx_hal_gpio.c 0x00000000   Number         0  stm32f1xx_hal_gpio.o ABSOLUTE
    ../Drivers/STM32F1xx_HAL_Driver/Src/stm32f1xx_hal_gpio_ex.c 0x00000000   Number         0  stm32f1xx_hal_gpio_ex.o ABSOLUTE
    ../Drivers/STM32F1xx_HAL_Driver/Src/stm32f1xx_hal_pwr.c 0x00000000   Number         0  stm32f1xx_hal_pwr.o ABSOLUTE
    ../Drivers/STM32F1xx_HAL_Driver/Src/stm32f1xx_hal_rcc.c 0x00000000   Number         0  stm32f1xx_hal_rcc.o ABSOLUTE
    ../Drivers/STM32F1xx_HAL_Driver/Src/stm32f1xx_hal_rcc_ex.c 0x00000000   Number         0  stm32f1xx_hal_rcc_ex.o ABSOLUTE
    ../Drivers/STM32F1xx_HAL_Driver/Src/stm32f1xx_hal_tim.c 0x00000000   Number         0  stm32f1xx_hal_tim.o ABSOLUTE
    ../Drivers/STM32F1xx_HAL_Driver/Src/stm32f1xx_hal_tim_ex.c 0x00000000   Number         0  stm32f1xx_hal_tim_ex.o ABSOLUTE
    ../Middlewares/Third_Party/FreeRTOS/Source/CMSIS_RTOS/cmsis_os.c 0x00000000   Number         0  cmsis_os.o ABSOLUTE
    ../Middlewares/Third_Party/FreeRTOS/Source/croutine.c 0x00000000   Number         0  croutine.o ABSOLUTE
    ../Middlewares/Third_Party/FreeRTOS/Source/event_groups.c 0x00000000   Number         0  event_groups.o ABSOLUTE
    ../Middlewares/Third_Party/FreeRTOS/Source/list.c 0x00000000   Number         0  list.o ABSOLUTE
    ../Middlewares/Third_Party/FreeRTOS/Source/portable/MemMang/heap_4.c 0x00000000   Number         0  heap_4.o ABSOLUTE
    ../Middlewares/Third_Party/FreeRTOS/Source/portable/RVDS/ARM_CM3/port.c 0x00000000   Number         0  port.o ABSOLUTE
    ../Middlewares/Third_Party/FreeRTOS/Source/queue.c 0x00000000   Number         0  queue.o ABSOLUTE
    ../Middlewares/Third_Party/FreeRTOS/Source/tasks.c 0x00000000   Number         0  tasks.o ABSOLUTE
    ../Middlewares/Third_Party/FreeRTOS/Source/timers.c 0x00000000   Number         0  timers.o ABSOLUTE
    ../Src/freertos.c                        0x00000000   Number         0  freertos.o ABSOLUTE
    ../Src/main.c                            0x00000000   Number         0  main.o ABSOLUTE
    ../Src/stm32f1xx_hal_msp.c               0x00000000   Number         0  stm32f1xx_hal_msp.o ABSOLUTE
    ../Src/stm32f1xx_it.c                    0x00000000   Number         0  stm32f1xx_it.o ABSOLUTE
    ../Src/system_stm32f1xx.c                0x00000000   Number         0  system_stm32f1xx.o ABSOLUTE
    ../clib/microlib/init/entry.s            0x00000000   Number         0  entry7b.o ABSOLUTE
    ../clib/microlib/init/entry.s            0x00000000   Number         0  entry8a.o ABSOLUTE
    ../clib/microlib/init/entry.s            0x00000000   Number         0  entry8b.o ABSOLUTE
    ../clib/microlib/init/entry.s            0x00000000   Number         0  entry11b.o ABSOLUTE
    ../clib/microlib/init/entry.s            0x00000000   Number         0  entry9a.o ABSOLUTE
    ../clib/microlib/init/entry.s            0x00000000   Number         0  entry11a.o ABSOLUTE
    ../clib/microlib/init/entry.s            0x00000000   Number         0  entry10b.o ABSOLUTE
    ../clib/microlib/init/entry.s            0x00000000   Number         0  entry9b.o ABSOLUTE
    ../clib/microlib/init/entry.s            0x00000000   Number         0  entry.o ABSOLUTE
    ../clib/microlib/init/entry.s            0x00000000   Number         0  entry10a.o ABSOLUTE
    ../clib/microlib/init/entry.s            0x00000000   Number         0  entry2.o ABSOLUTE
    ../clib/microlib/init/entry.s            0x00000000   Number         0  entry5.o ABSOLUTE
    ../clib/microlib/init/entry.s            0x00000000   Number         0  entry7a.o ABSOLUTE
    ../clib/microlib/longlong.c              0x00000000   Number         0  llushr.o ABSOLUTE
    ../clib/microlib/string/memcpy.c         0x00000000   Number         0  memcpyb.o ABSOLUTE
    ../clib/microlib/string/memcpy.c         0x00000000   Number         0  memcpya.o ABSOLUTE
    ../clib/microlib/string/memset.c         0x00000000   Number         0  memseta.o ABSOLUTE
    ../clib/microlib/stubs.s                 0x00000000   Number         0  iusefp.o ABSOLUTE
    ../fplib/microlib/fpadd.c                0x00000000   Number         0  fadd.o ABSOLUTE
    ../fplib/microlib/fpdiv.c                0x00000000   Number         0  fdiv.o ABSOLUTE
    ../fplib/microlib/fpepilogue.c           0x00000000   Number         0  fepilogue.o ABSOLUTE
    ../fplib/microlib/fpfix.c                0x00000000   Number         0  ffixui.o ABSOLUTE
    ../fplib/microlib/fpfix.c                0x00000000   Number         0  ffixi.o ABSOLUTE
    ../fplib/microlib/fpflt.c                0x00000000   Number         0  fflti.o ABSOLUTE
    ../fplib/microlib/fpflt.c                0x00000000   Number         0  ffltui.o ABSOLUTE
    ../fplib/microlib/fpmul.c                0x00000000   Number         0  fmul.o ABSOLUTE
    ..\Drivers\STM32F1xx_HAL_Driver\Src\stm32f1xx_hal.c 0x00000000   Number         0  stm32f1xx_hal.o ABSOLUTE
    ..\Drivers\STM32F1xx_HAL_Driver\Src\stm32f1xx_hal_cortex.c 0x00000000   Number         0  stm32f1xx_hal_cortex.o ABSOLUTE
    ..\Drivers\STM32F1xx_HAL_Driver\Src\stm32f1xx_hal_dma.c 0x00000000   Number         0  stm32f1xx_hal_dma.o ABSOLUTE
    ..\Drivers\STM32F1xx_HAL_Driver\Src\stm32f1xx_hal_flash.c 0x00000000   Number         0  stm32f1xx_hal_flash.o ABSOLUTE
    ..\Drivers\STM32F1xx_HAL_Driver\Src\stm32f1xx_hal_flash_ex.c 0x00000000   Number         0  stm32f1xx_hal_flash_ex.o ABSOLUTE
    ..\Drivers\STM32F1xx_HAL_Driver\Src\stm32f1xx_hal_gpio.c 0x00000000   Number         0  stm32f1xx_hal_gpio.o ABSOLUTE
    ..\Drivers\STM32F1xx_HAL_Driver\Src\stm32f1xx_hal_gpio_ex.c 0x00000000   Number         0  stm32f1xx_hal_gpio_ex.o ABSOLUTE
    ..\Drivers\STM32F1xx_HAL_Driver\Src\stm32f1xx_hal_pwr.c 0x00000000   Number         0  stm32f1xx_hal_pwr.o ABSOLUTE
    ..\Drivers\STM32F1xx_HAL_Driver\Src\stm32f1xx_hal_rcc.c 0x00000000   Number         0  stm32f1xx_hal_rcc.o ABSOLUTE
    ..\Drivers\STM32F1xx_HAL_Driver\Src\stm32f1xx_hal_rcc_ex.c 0x00000000   Number         0  stm32f1xx_hal_rcc_ex.o ABSOLUTE
    ..\Drivers\STM32F1xx_HAL_Driver\Src\stm32f1xx_hal_tim.c 0x00000000   Number         0  stm32f1xx_hal_tim.o ABSOLUTE
    ..\Drivers\STM32F1xx_HAL_Driver\Src\stm32f1xx_hal_tim_ex.c 0x00000000   Number         0  stm32f1xx_hal_tim_ex.o ABSOLUTE
    ..\Middlewares\Third_Party\FreeRTOS\Source\CMSIS_RTOS\cmsis_os.c 0x00000000   Number         0  cmsis_os.o ABSOLUTE
    ..\Middlewares\Third_Party\FreeRTOS\Source\portable\RVDS\ARM_CM3\port.c 0x00000000   Number         0  port.o ABSOLUTE
    ..\Src\freertos.c                        0x00000000   Number         0  freertos.o ABSOLUTE
    ..\Src\main.c                            0x00000000   Number         0  main.o ABSOLUTE
    ..\Src\stm32f1xx_hal_msp.c               0x00000000   Number         0  stm32f1xx_hal_msp.o ABSOLUTE
    ..\Src\stm32f1xx_it.c                    0x00000000   Number         0  stm32f1xx_it.o ABSOLUTE
    ..\Src\system_stm32f1xx.c                0x00000000   Number         0  system_stm32f1xx.o ABSOLUTE
    dc.s                                     0x00000000   Number         0  dc.o ABSOLUTE
    handlers.s                               0x00000000   Number         0  handlers.o ABSOLUTE
    init.s                                   0x00000000   Number         0  init.o ABSOLUTE
    startup_stm32f103xb.s                    0x00000000   Number         0  startup_stm32f103xb.o ABSOLUTE
    RESET                                    0x08000000   Section      236  startup_stm32f103xb.o(RESET)
    .ARM.Collect$$$$00000000                 0x080000ec   Section        0  entry.o(.ARM.Collect$$$$00000000)
    .ARM.Collect$$$$00000001                 0x080000ec   Section        4  entry2.o(.ARM.Collect$$$$00000001)
    .ARM.Collect$$$$00000004                 0x080000f0   Section        4  entry5.o(.ARM.Collect$$$$00000004)
    .ARM.Collect$$$$00000008                 0x080000f4   Section        0  entry7b.o(.ARM.Collect$$$$00000008)
    .ARM.Collect$$$$0000000A                 0x080000f4   Section        0  entry8b.o(.ARM.Collect$$$$0000000A)
    .ARM.Collect$$$$0000000B                 0x080000f4   Section        8  entry9a.o(.ARM.Collect$$$$0000000B)
    .ARM.Collect$$$$0000000D                 0x080000fc   Section        0  entry10a.o(.ARM.Collect$$$$0000000D)
    .ARM.Collect$$$$0000000F                 0x080000fc   Section        0  entry11a.o(.ARM.Collect$$$$0000000F)
    .ARM.Collect$$$$00002712                 0x080000fc   Section        4  entry2.o(.ARM.Collect$$$$00002712)
    __lit__00000000                          0x080000fc   Data           4  entry2.o(.ARM.Collect$$$$00002712)
    .emb_text                                0x08000100   Section      150  port.o(.emb_text)
    .text                                    0x08000198   Section       36  startup_stm32f103xb.o(.text)
    .text                                    0x080001bc   Section        0  memcpya.o(.text)
    .text                                    0x080001e0   Section        0  memseta.o(.text)
    .text                                    0x08000204   Section        0  fadd.o(.text)
    .text                                    0x080002b4   Section        0  fmul.o(.text)
    .text                                    0x08000318   Section        0  fdiv.o(.text)
    .text                                    0x08000394   Section        0  fflti.o(.text)
    .text                                    0x080003a6   Section        0  ffltui.o(.text)
    .text                                    0x080003b0   Section        0  ffixi.o(.text)
    .text                                    0x080003e2   Section        0  ffixui.o(.text)
    .text                                    0x0800040a   Section        0  fepilogue.o(.text)
    .text                                    0x0800040a   Section        0  iusefp.o(.text)
    .text                                    0x08000478   Section       36  init.o(.text)
    i.BusFault_Handler                       0x0800049c   Section        0  stm32f1xx_it.o(i.BusFault_Handler)
    i.CalculateSpeedMean                     0x080004a0   Section        0  main.o(i.CalculateSpeedMean)
    i.DebugMon_Handler                       0x080004d8   Section        0  stm32f1xx_it.o(i.DebugMon_Handler)
    i.HAL_GPIO_Init                          0x080004dc   Section        0  stm32f1xx_hal_gpio.o(i.HAL_GPIO_Init)
    i.HAL_GPIO_TogglePin                     0x080006a4   Section        0  stm32f1xx_hal_gpio.o(i.HAL_GPIO_TogglePin)
    i.HAL_GPIO_WritePin                      0x080006ac   Section        0  stm32f1xx_hal_gpio.o(i.HAL_GPIO_WritePin)
    i.HAL_GetTick                            0x080006b8   Section        0  stm32f1xx_hal.o(i.HAL_GetTick)
    i.HAL_IncTick                            0x080006c4   Section        0  stm32f1xx_hal.o(i.HAL_IncTick)
    i.HAL_Init                               0x080006d4   Section        0  stm32f1xx_hal.o(i.HAL_Init)
    i.HAL_InitTick                           0x080006f8   Section        0  stm32f1xx_hal.o(i.HAL_InitTick)
    i.HAL_MspInit                            0x08000738   Section        0  stm32f1xx_hal_msp.o(i.HAL_MspInit)
    i.HAL_NVIC_SetPriority                   0x0800077c   Section        0  stm32f1xx_hal_cortex.o(i.HAL_NVIC_SetPriority)
    i.HAL_NVIC_SetPriorityGrouping           0x080007bc   Section        0  stm32f1xx_hal_cortex.o(i.HAL_NVIC_SetPriorityGrouping)
    i.HAL_RCC_ClockConfig                    0x080007e0   Section        0  stm32f1xx_hal_rcc.o(i.HAL_RCC_ClockConfig)
    i.HAL_RCC_GetSysClockFreq                0x08000948   Section        0  stm32f1xx_hal_rcc.o(i.HAL_RCC_GetSysClockFreq)
    i.HAL_RCC_OscConfig                      0x080009b4   Section        0  stm32f1xx_hal_rcc.o(i.HAL_RCC_OscConfig)
    i.HAL_SYSTICK_Config                     0x08000cac   Section        0  stm32f1xx_hal_cortex.o(i.HAL_SYSTICK_Config)
    i.HAL_TIMEx_MasterConfigSynchronization  0x08000cd4   Section        0  stm32f1xx_hal_tim_ex.o(i.HAL_TIMEx_MasterConfigSynchronization)
    i.HAL_TIM_Base_Init                      0x08000d24   Section        0  stm32f1xx_hal_tim.o(i.HAL_TIM_Base_Init)
    i.HAL_TIM_Base_MspInit                   0x08000d5c   Section        0  stm32f1xx_hal_msp.o(i.HAL_TIM_Base_MspInit)
    i.HAL_TIM_Base_Start                     0x08000db4   Section        0  stm32f1xx_hal_tim.o(i.HAL_TIM_Base_Start)
    i.HAL_TIM_IC_ConfigChannel               0x08000dce   Section        0  stm32f1xx_hal_tim.o(i.HAL_TIM_IC_ConfigChannel)
    i.HAL_TIM_IC_Init                        0x08000ee8   Section        0  stm32f1xx_hal_tim.o(i.HAL_TIM_IC_Init)
    i.HAL_TIM_IC_MspInit                     0x08000f1e   Section        0  stm32f1xx_hal_tim.o(i.HAL_TIM_IC_MspInit)
    i.HAL_TIM_IC_Start                       0x08000f20   Section        0  stm32f1xx_hal_tim.o(i.HAL_TIM_IC_Start)
    i.HAL_TIM_MspPostInit                    0x08000f3c   Section        0  stm32f1xx_hal_msp.o(i.HAL_TIM_MspPostInit)
    i.HAL_TIM_PWM_ConfigChannel              0x08000fa0   Section        0  stm32f1xx_hal_tim.o(i.HAL_TIM_PWM_ConfigChannel)
    i.HAL_TIM_PWM_Init                       0x08001070   Section        0  stm32f1xx_hal_tim.o(i.HAL_TIM_PWM_Init)
    i.HAL_TIM_PWM_MspInit                    0x080010a8   Section        0  stm32f1xx_hal_msp.o(i.HAL_TIM_PWM_MspInit)
    i.HAL_TIM_PWM_Start                      0x080010e4   Section        0  stm32f1xx_hal_tim.o(i.HAL_TIM_PWM_Start)
    i.HAL_TIM_ReadCapturedValue              0x08001114   Section        0  stm32f1xx_hal_tim.o(i.HAL_TIM_ReadCapturedValue)
    i.HAL_TIM_SlaveConfigSynchronization     0x08001158   Section        0  stm32f1xx_hal_tim.o(i.HAL_TIM_SlaveConfigSynchronization)
    i.HardFault_Handler                      0x0800119a   Section        0  stm32f1xx_it.o(i.HardFault_Handler)
    i.MX_GPIO_Init                           0x0800119c   Section        0  main.o(i.MX_GPIO_Init)
    MX_GPIO_Init                             0x0800119d   Thumb Code   140  main.o(i.MX_GPIO_Init)
    i.MX_TIM1_Init                           0x08001234   Section        0  main.o(i.MX_TIM1_Init)
    MX_TIM1_Init                             0x08001235   Thumb Code   132  main.o(i.MX_TIM1_Init)
    i.MX_TIM2_Init                           0x080012c0   Section        0  main.o(i.MX_TIM2_Init)
    MX_TIM2_Init                             0x080012c1   Thumb Code    96  main.o(i.MX_TIM2_Init)
    i.MX_TIM3_Init                           0x08001324   Section        0  main.o(i.MX_TIM3_Init)
    MX_TIM3_Init                             0x08001325   Thumb Code    94  main.o(i.MX_TIM3_Init)
    i.MemManage_Handler                      0x0800138c   Section        0  stm32f1xx_it.o(i.MemManage_Handler)
    i.NMI_Handler                            0x0800138e   Section        0  stm32f1xx_it.o(i.NMI_Handler)
    i.NVIC_SetPriority                       0x08001390   Section        0  stm32f1xx_hal_cortex.o(i.NVIC_SetPriority)
    NVIC_SetPriority                         0x08001391   Thumb Code    32  stm32f1xx_hal_cortex.o(i.NVIC_SetPriority)
    i.ResetPID                               0x080013b0   Section        0  main.o(i.ResetPID)
    i.RunPID                                 0x080013e4   Section        0  main.o(i.RunPID)
    i.SysTick_Handler                        0x080014b0   Section        0  stm32f1xx_it.o(i.SysTick_Handler)
    i.SystemClock_Config                     0x080014be   Section        0  main.o(i.SystemClock_Config)
    i.SystemInit                             0x08001500   Section        0  system_stm32f1xx.o(i.SystemInit)
    i.TIM_Base_SetConfig                     0x08001548   Section        0  stm32f1xx_hal_tim.o(i.TIM_Base_SetConfig)
    i.TIM_CCxChannelCmd                      0x080015b4   Section        0  stm32f1xx_hal_tim.o(i.TIM_CCxChannelCmd)
    i.TIM_ETR_SetConfig                      0x080015ca   Section        0  stm32f1xx_hal_tim.o(i.TIM_ETR_SetConfig)
    TIM_ETR_SetConfig                        0x080015cb   Thumb Code    20  stm32f1xx_hal_tim.o(i.TIM_ETR_SetConfig)
    i.TIM_OC1_SetConfig                      0x080015e0   Section        0  stm32f1xx_hal_tim.o(i.TIM_OC1_SetConfig)
    TIM_OC1_SetConfig                        0x080015e1   Thumb Code    82  stm32f1xx_hal_tim.o(i.TIM_OC1_SetConfig)
    i.TIM_OC2_SetConfig                      0x08001638   Section        0  stm32f1xx_hal_tim.o(i.TIM_OC2_SetConfig)
    i.TIM_OC3_SetConfig                      0x08001694   Section        0  stm32f1xx_hal_tim.o(i.TIM_OC3_SetConfig)
    TIM_OC3_SetConfig                        0x08001695   Thumb Code    84  stm32f1xx_hal_tim.o(i.TIM_OC3_SetConfig)
    i.TIM_OC4_SetConfig                      0x080016ec   Section        0  stm32f1xx_hal_tim.o(i.TIM_OC4_SetConfig)
    TIM_OC4_SetConfig                        0x080016ed   Thumb Code    64  stm32f1xx_hal_tim.o(i.TIM_OC4_SetConfig)
    i.TIM_SlaveTimer_SetConfig               0x08001730   Section        0  stm32f1xx_hal_tim.o(i.TIM_SlaveTimer_SetConfig)
    TIM_SlaveTimer_SetConfig                 0x08001731   Thumb Code   124  stm32f1xx_hal_tim.o(i.TIM_SlaveTimer_SetConfig)
    i.TIM_TI1_ConfigInputStage               0x080017ac   Section        0  stm32f1xx_hal_tim.o(i.TIM_TI1_ConfigInputStage)
    TIM_TI1_ConfigInputStage                 0x080017ad   Thumb Code    34  stm32f1xx_hal_tim.o(i.TIM_TI1_ConfigInputStage)
    i.TIM_TI1_SetConfig                      0x080017d0   Section        0  stm32f1xx_hal_tim.o(i.TIM_TI1_SetConfig)
    i.TIM_TI2_ConfigInputStage               0x08001828   Section        0  stm32f1xx_hal_tim.o(i.TIM_TI2_ConfigInputStage)
    TIM_TI2_ConfigInputStage                 0x08001829   Thumb Code    36  stm32f1xx_hal_tim.o(i.TIM_TI2_ConfigInputStage)
    i.TIM_TI2_SetConfig                      0x0800184c   Section        0  stm32f1xx_hal_tim.o(i.TIM_TI2_SetConfig)
    TIM_TI2_SetConfig                        0x0800184d   Thumb Code    54  stm32f1xx_hal_tim.o(i.TIM_TI2_SetConfig)
    i.UsageFault_Handler                     0x08001882   Section        0  stm32f1xx_it.o(i.UsageFault_Handler)
    i.UserPWMSetValue                        0x08001884   Section        0  main.o(i.UserPWMSetValue)
    i.__scatterload_copy                     0x080018c0   Section       14  handlers.o(i.__scatterload_copy)
    i.__scatterload_null                     0x080018ce   Section        2  handlers.o(i.__scatterload_null)
    i.__scatterload_zeroinit                 0x080018d0   Section       14  handlers.o(i.__scatterload_zeroinit)
    i.app_get_statistics                     0x080018de   Section        0  main.o(i.app_get_statistics)
    i.app_sensor_control_filter_values       0x08001944   Section        0  main.o(i.app_sensor_control_filter_values)
    app_sensor_control_filter_values         0x08001945   Thumb Code   106  main.o(i.app_sensor_control_filter_values)
    i.inHandlerMode                          0x080019b8   Section        0  cmsis_os.o(i.inHandlerMode)
    inHandlerMode                            0x080019b9   Thumb Code    12  cmsis_os.o(i.inHandlerMode)
    i.main                                   0x080019c4   Section        0  main.o(i.main)
    i.makeFreeRtosPriority                   0x08001ac0   Section        0  cmsis_os.o(i.makeFreeRtosPriority)
    makeFreeRtosPriority                     0x08001ac1   Thumb Code    12  cmsis_os.o(i.makeFreeRtosPriority)
    i.osDelay                                0x08001acc   Section        0  cmsis_os.o(i.osDelay)
    i.osKernelStart                          0x08001ada   Section        0  cmsis_os.o(i.osKernelStart)
    i.osSystickHandler                       0x08001ae4   Section        0  cmsis_os.o(i.osSystickHandler)
    i.osThreadCreate                         0x08001af8   Section        0  cmsis_os.o(i.osThreadCreate)
    i.osTimerCreate                          0x08001b28   Section        0  cmsis_os.o(i.osTimerCreate)
    i.osTimerStart                           0x08001b48   Section        0  cmsis_os.o(i.osTimerStart)
    i.prvAddCurrentTaskToDelayedList         0x08001ba8   Section        0  tasks.o(i.prvAddCurrentTaskToDelayedList)
    prvAddCurrentTaskToDelayedList           0x08001ba9   Thumb Code   102  tasks.o(i.prvAddCurrentTaskToDelayedList)
    i.prvAddNewTaskToReadyList               0x08001c18   Section        0  tasks.o(i.prvAddNewTaskToReadyList)
    prvAddNewTaskToReadyList                 0x08001c19   Thumb Code   194  tasks.o(i.prvAddNewTaskToReadyList)
    i.prvCheckForValidListAndQueue           0x08001ce8   Section        0  timers.o(i.prvCheckForValidListAndQueue)
    prvCheckForValidListAndQueue             0x08001ce9   Thumb Code    62  timers.o(i.prvCheckForValidListAndQueue)
    i.prvCheckTasksWaitingTermination        0x08001d38   Section        0  tasks.o(i.prvCheckTasksWaitingTermination)
    prvCheckTasksWaitingTermination          0x08001d39   Thumb Code    74  tasks.o(i.prvCheckTasksWaitingTermination)
    i.prvCopyDataFromQueue                   0x08001d8c   Section        0  queue.o(i.prvCopyDataFromQueue)
    prvCopyDataFromQueue                     0x08001d8d   Thumb Code    38  queue.o(i.prvCopyDataFromQueue)
    i.prvCopyDataToQueue                     0x08001db2   Section        0  queue.o(i.prvCopyDataToQueue)
    prvCopyDataToQueue                       0x08001db3   Thumb Code   108  queue.o(i.prvCopyDataToQueue)
    i.prvDeleteTCB                           0x08001e1e   Section        0  tasks.o(i.prvDeleteTCB)
    prvDeleteTCB                             0x08001e1f   Thumb Code    20  tasks.o(i.prvDeleteTCB)
    i.prvHeapInit                            0x08001e34   Section        0  heap_4.o(i.prvHeapInit)
    prvHeapInit                              0x08001e35   Thumb Code    66  heap_4.o(i.prvHeapInit)
    i.prvIdleTask                            0x08001e80   Section        0  tasks.o(i.prvIdleTask)
    prvIdleTask                              0x08001e81   Thumb Code    30  tasks.o(i.prvIdleTask)
    i.prvInitialiseNewTask                   0x08001ea8   Section        0  tasks.o(i.prvInitialiseNewTask)
    prvInitialiseNewTask                     0x08001ea9   Thumb Code   142  tasks.o(i.prvInitialiseNewTask)
    i.prvInsertBlockIntoFreeList             0x08001f38   Section        0  heap_4.o(i.prvInsertBlockIntoFreeList)
    prvInsertBlockIntoFreeList               0x08001f39   Thumb Code    72  heap_4.o(i.prvInsertBlockIntoFreeList)
    i.prvInsertTimerInActiveList             0x08001f84   Section        0  timers.o(i.prvInsertTimerInActiveList)
    prvInsertTimerInActiveList               0x08001f85   Thumb Code    52  timers.o(i.prvInsertTimerInActiveList)
    i.prvIsQueueEmpty                        0x08001fbc   Section        0  queue.o(i.prvIsQueueEmpty)
    prvIsQueueEmpty                          0x08001fbd   Thumb Code    26  queue.o(i.prvIsQueueEmpty)
    i.prvProcessReceivedCommands             0x08001fd8   Section        0  timers.o(i.prvProcessReceivedCommands)
    prvProcessReceivedCommands               0x08001fd9   Thumb Code   180  timers.o(i.prvProcessReceivedCommands)
    i.prvProcessTimerOrBlockTask             0x08002090   Section        0  timers.o(i.prvProcessTimerOrBlockTask)
    prvProcessTimerOrBlockTask               0x08002091   Thumb Code   172  timers.o(i.prvProcessTimerOrBlockTask)
    i.prvResetNextTaskUnblockTime            0x08002144   Section        0  tasks.o(i.prvResetNextTaskUnblockTime)
    prvResetNextTaskUnblockTime              0x08002145   Thumb Code    26  tasks.o(i.prvResetNextTaskUnblockTime)
    i.prvSampleTimeNow                       0x08002164   Section        0  timers.o(i.prvSampleTimeNow)
    prvSampleTimeNow                         0x08002165   Thumb Code    36  timers.o(i.prvSampleTimeNow)
    i.prvSwitchTimerLists                    0x0800218c   Section        0  timers.o(i.prvSwitchTimerLists)
    prvSwitchTimerLists                      0x0800218d   Thumb Code   102  timers.o(i.prvSwitchTimerLists)
    i.prvTaskExitError                       0x080021f8   Section        0  port.o(i.prvTaskExitError)
    prvTaskExitError                         0x080021f9   Thumb Code    36  port.o(i.prvTaskExitError)
    i.prvTimerTask                           0x08002220   Section        0  timers.o(i.prvTimerTask)
    prvTimerTask                             0x08002221   Thumb Code    34  timers.o(i.prvTimerTask)
    i.prvUnlockQueue                         0x08002248   Section        0  queue.o(i.prvUnlockQueue)
    prvUnlockQueue                           0x08002249   Thumb Code   106  queue.o(i.prvUnlockQueue)
    i.pvPortMalloc                           0x080022b4   Section        0  heap_4.o(i.pvPortMalloc)
    i.pvTaskIncrementMutexHeldCount          0x0800238c   Section        0  tasks.o(i.pvTaskIncrementMutexHeldCount)
    i.pxPortInitialiseStack                  0x080023a4   Section        0  port.o(i.pxPortInitialiseStack)
    i.shellsort                              0x080023c8   Section        0  main.o(i.shellsort)
    i.uxListRemove                           0x08002404   Section        0  list.o(i.uxListRemove)
    i.vListInitialise                        0x08002428   Section        0  list.o(i.vListInitialise)
    i.vListInitialiseItem                    0x0800243e   Section        0  list.o(i.vListInitialiseItem)
    i.vListInsert                            0x08002444   Section        0  list.o(i.vListInsert)
    i.vListInsertEnd                         0x08002474   Section        0  list.o(i.vListInsertEnd)
    i.vPortEnterCritical                     0x0800248c   Section        0  port.o(i.vPortEnterCritical)
    i.vPortExitCritical                      0x080024cc   Section        0  port.o(i.vPortExitCritical)
    i.vPortFree                              0x080024f4   Section        0  heap_4.o(i.vPortFree)
    i.vPortSetupTimerInterrupt               0x08002550   Section        0  port.o(i.vPortSetupTimerInterrupt)
    i.vPortValidateInterruptPriority         0x08002570   Section        0  port.o(i.vPortValidateInterruptPriority)
    i.vQueueAddToRegistry                    0x080025c4   Section        0  queue.o(i.vQueueAddToRegistry)
    i.vQueueWaitForMessageRestricted         0x080025e8   Section        0  queue.o(i.vQueueWaitForMessageRestricted)
    i.vTaskDelay                             0x0800262c   Section        0  tasks.o(i.vTaskDelay)
    i.vTaskINPC1                             0x08002678   Section        0  main.o(i.vTaskINPC1)
    i.vTaskINPC2                             0x080026f0   Section        0  main.o(i.vTaskINPC2)
    i.vTaskMissedYield                       0x0800277c   Section        0  tasks.o(i.vTaskMissedYield)
    i.vTaskMotor1Control                     0x08002788   Section        0  main.o(i.vTaskMotor1Control)
    i.vTaskMotor2Control                     0x080027a4   Section        0  main.o(i.vTaskMotor2Control)
    i.vTaskPlaceOnEventList                  0x080027c4   Section        0  tasks.o(i.vTaskPlaceOnEventList)
    i.vTaskPlaceOnEventListRestricted        0x080027f4   Section        0  tasks.o(i.vTaskPlaceOnEventListRestricted)
    i.vTaskPriorityInherit                   0x0800282c   Section        0  tasks.o(i.vTaskPriorityInherit)
    i.vTaskSetTimeOutState                   0x080028b0   Section        0  tasks.o(i.vTaskSetTimeOutState)
    i.vTaskStartScheduler                    0x080028d4   Section        0  tasks.o(i.vTaskStartScheduler)
    i.vTaskSuspendAll                        0x08002944   Section        0  tasks.o(i.vTaskSuspendAll)
    i.vTaskSwitchContext                     0x08002954   Section        0  tasks.o(i.vTaskSwitchContext)
    i.vTimer1Callback1                       0x080029b0   Section        0  main.o(i.vTimer1Callback1)
    i.xPortStartScheduler                    0x080029e8   Section        0  port.o(i.xPortStartScheduler)
    i.xPortSysTickHandler                    0x08002a60   Section        0  port.o(i.xPortSysTickHandler)
    i.xQueueGenericCreate                    0x08002a8c   Section        0  queue.o(i.xQueueGenericCreate)
    i.xQueueGenericReceive                   0x08002ad4   Section        0  queue.o(i.xQueueGenericReceive)
    i.xQueueGenericReset                     0x08002c44   Section        0  queue.o(i.xQueueGenericReset)
    i.xQueueGenericSend                      0x08002ccc   Section        0  queue.o(i.xQueueGenericSend)
    i.xQueueGenericSendFromISR               0x08002e30   Section        0  queue.o(i.xQueueGenericSendFromISR)
    i.xTaskCheckForTimeOut                   0x08002eec   Section        0  tasks.o(i.xTaskCheckForTimeOut)
    i.xTaskCreate                            0x08002f58   Section        0  tasks.o(i.xTaskCreate)
    i.xTaskGetSchedulerState                 0x08002fb0   Section        0  tasks.o(i.xTaskGetSchedulerState)
    i.xTaskGetTickCount                      0x08002fcc   Section        0  tasks.o(i.xTaskGetTickCount)
    i.xTaskIncrementTick                     0x08002fd8   Section        0  tasks.o(i.xTaskIncrementTick)
    i.xTaskPriorityDisinherit                0x080030a0   Section        0  tasks.o(i.xTaskPriorityDisinherit)
    i.xTaskRemoveFromEventList               0x08003138   Section        0  tasks.o(i.xTaskRemoveFromEventList)
    i.xTaskResumeAll                         0x080031ac   Section        0  tasks.o(i.xTaskResumeAll)
    i.xTimerCreate                           0x08003270   Section        0  timers.o(i.xTimerCreate)
    i.xTimerCreateTimerTask                  0x080032c0   Section        0  timers.o(i.xTimerCreateTimerTask)
    i.xTimerGenericCommand                   0x08003308   Section        0  timers.o(i.xTimerGenericCommand)
    .constdata                               0x08003364   Section       16  system_stm32f1xx.o(.constdata)
    .constdata                               0x08003374   Section       84  main.o(.constdata)
    .conststring                             0x080033c8   Section       46  main.o(.conststring)
    .data                                    0x20000000   Section       12  stm32f1xx_hal.o(.data)
    .data                                    0x2000000c   Section        4  system_stm32f1xx.o(.data)
    .data                                    0x20000010   Section       60  tasks.o(.data)
    uxDeletedTasksWaitingCleanUp             0x20000014   Data           4  tasks.o(.data)
    uxCurrentNumberOfTasks                   0x20000018   Data           4  tasks.o(.data)
    xTickCount                               0x2000001c   Data           4  tasks.o(.data)
    uxTopReadyPriority                       0x20000020   Data           4  tasks.o(.data)
    xSchedulerRunning                        0x20000024   Data           4  tasks.o(.data)
    uxPendedTicks                            0x20000028   Data           4  tasks.o(.data)
    xYieldPending                            0x2000002c   Data           4  tasks.o(.data)
    xNumOfOverflows                          0x20000030   Data           4  tasks.o(.data)
    uxTaskNumber                             0x20000034   Data           4  tasks.o(.data)
    xNextTaskUnblockTime                     0x20000038   Data           4  tasks.o(.data)
    xIdleTaskHandle                          0x2000003c   Data           4  tasks.o(.data)
    uxSchedulerSuspended                     0x20000040   Data           4  tasks.o(.data)
    pxDelayedTaskList                        0x20000044   Data           4  tasks.o(.data)
    pxOverflowDelayedTaskList                0x20000048   Data           4  tasks.o(.data)
    .data                                    0x2000004c   Section       20  timers.o(.data)
    xTimerQueue                              0x2000004c   Data           4  timers.o(.data)
    xTimerTaskHandle                         0x20000050   Data           4  timers.o(.data)
    xLastTime                                0x20000054   Data           4  timers.o(.data)
    pxCurrentTimerList                       0x20000058   Data           4  timers.o(.data)
    pxOverflowTimerList                      0x2000005c   Data           4  timers.o(.data)
    .data                                    0x20000060   Section       24  heap_4.o(.data)
    pxEnd                                    0x20000060   Data           4  heap_4.o(.data)
    xFreeBytesRemaining                      0x20000064   Data           4  heap_4.o(.data)
    xMinimumEverFreeBytesRemaining           0x20000068   Data           4  heap_4.o(.data)
    xBlockAllocatedBit                       0x2000006c   Data           4  heap_4.o(.data)
    xStart                                   0x20000070   Data           8  heap_4.o(.data)
    .data                                    0x20000078   Section       12  port.o(.data)
    ucMaxSysCallPriority                     0x20000078   Data           1  port.o(.data)
    uxCriticalNesting                        0x2000007c   Data           4  port.o(.data)
    ulMaxPRIGROUPValue                       0x20000080   Data           4  port.o(.data)
    .data                                    0x20000084   Section       72  main.o(.data)
    .bss                                     0x200000cc   Section       64  queue.o(.bss)
    .bss                                     0x2000010c   Section      240  tasks.o(.bss)
    pxReadyTasksLists                        0x2000010c   Data         140  tasks.o(.bss)
    xDelayedTaskList1                        0x20000198   Data          20  tasks.o(.bss)
    xDelayedTaskList2                        0x200001ac   Data          20  tasks.o(.bss)
    xPendingReadyList                        0x200001c0   Data          20  tasks.o(.bss)
    xTasksWaitingTermination                 0x200001d4   Data          20  tasks.o(.bss)
    xSuspendedTaskList                       0x200001e8   Data          20  tasks.o(.bss)
    .bss                                     0x200001fc   Section       40  timers.o(.bss)
    xActiveTimerList1                        0x200001fc   Data          20  timers.o(.bss)
    xActiveTimerList2                        0x20000210   Data          20  timers.o(.bss)
    .bss                                     0x20000224   Section     6144  heap_4.o(.bss)
    ucHeap                                   0x20000224   Data        6144  heap_4.o(.bss)
    .bss                                     0x20001a24   Section      472  main.o(.bss)
    CalcParams_t                             0x20001ae4   Data          40  main.o(.bss)
    PIDParams_t                              0x20001b0c   Data          80  main.o(.bss)
    MotorSpeedValuesArray                    0x20001b5c   Data         160  main.o(.bss)
    STACK                                    0x20001c00   Section     1024  startup_stm32f103xb.o(STACK)

    Global Symbols

    Symbol Name                              Value     Ov Type        Size  Object(Section)

    BuildAttributes$$THM_ISAv4$P$D$K$B$S$PE$A:L22UL41UL21$X:L11$S22US41US21$IEEE1$IW$USESV6$~STKCKD$USESV7$~SHL$OTIME$ROPI$EBA8$MICROLIB$REQ8$PRES8$EABIv2 0x00000000   Number         0  anon$$obj.o ABSOLUTE
    __ARM_use_no_argv                        0x00000000   Number         0  main.o ABSOLUTE
    __cpp_initialize__aeabi_                  - Undefined Weak Reference
    __cxa_finalize                            - Undefined Weak Reference
    __decompress                              - Undefined Weak Reference
    _clock_init                               - Undefined Weak Reference
    _microlib_exit                            - Undefined Weak Reference
    __Vectors_Size                           0x000000ec   Number         0  startup_stm32f103xb.o ABSOLUTE
    __Vectors                                0x08000000   Data           4  startup_stm32f103xb.o(RESET)
    __Vectors_End                            0x080000ec   Data           0  startup_stm32f103xb.o(RESET)
    __main                                   0x080000ed   Thumb Code     0  entry.o(.ARM.Collect$$$$00000000)
    _main_stk                                0x080000ed   Thumb Code     0  entry2.o(.ARM.Collect$$$$00000001)
    _main_scatterload                        0x080000f1   Thumb Code     0  entry5.o(.ARM.Collect$$$$00000004)
    __main_after_scatterload                 0x080000f5   Thumb Code     0  entry5.o(.ARM.Collect$$$$00000004)
    _main_clock                              0x080000f5   Thumb Code     0  entry7b.o(.ARM.Collect$$$$00000008)
    _main_cpp_init                           0x080000f5   Thumb Code     0  entry8b.o(.ARM.Collect$$$$0000000A)
    _main_init                               0x080000f5   Thumb Code     0  entry9a.o(.ARM.Collect$$$$0000000B)
    __rt_final_cpp                           0x080000fd   Thumb Code     0  entry10a.o(.ARM.Collect$$$$0000000D)
    __rt_final_exit                          0x080000fd   Thumb Code     0  entry11a.o(.ARM.Collect$$$$0000000F)
    SVC_Handler                              0x08000101   Thumb Code    32  port.o(.emb_text)
    __asm___6_port_c_39a90d8d__prvStartFirstTask 0x08000125   Thumb Code    28  port.o(.emb_text)
    PendSV_Handler                           0x08000145   Thumb Code    72  port.o(.emb_text)
    vPortGetIPSR                             0x08000191   Thumb Code     6  port.o(.emb_text)
    Reset_Handler                            0x08000199   Thumb Code     8  startup_stm32f103xb.o(.text)
    ADC1_2_IRQHandler                        0x080001b3   Thumb Code     0  startup_stm32f103xb.o(.text)
    CAN1_RX1_IRQHandler                      0x080001b3   Thumb Code     0  startup_stm32f103xb.o(.text)
    CAN1_SCE_IRQHandler                      0x080001b3   Thumb Code     0  startup_stm32f103xb.o(.text)
    DMA1_Channel1_IRQHandler                 0x080001b3   Thumb Code     0  startup_stm32f103xb.o(.text)
    DMA1_Channel2_IRQHandler                 0x080001b3   Thumb Code     0  startup_stm32f103xb.o(.text)
    DMA1_Channel3_IRQHandler                 0x080001b3   Thumb Code     0  startup_stm32f103xb.o(.text)
    DMA1_Channel4_IRQHandler                 0x080001b3   Thumb Code     0  startup_stm32f103xb.o(.text)
    DMA1_Channel5_IRQHandler                 0x080001b3   Thumb Code     0  startup_stm32f103xb.o(.text)
    DMA1_Channel6_IRQHandler                 0x080001b3   Thumb Code     0  startup_stm32f103xb.o(.text)
    DMA1_Channel7_IRQHandler                 0x080001b3   Thumb Code     0  startup_stm32f103xb.o(.text)
    EXTI0_IRQHandler                         0x080001b3   Thumb Code     0  startup_stm32f103xb.o(.text)
    EXTI15_10_IRQHandler                     0x080001b3   Thumb Code     0  startup_stm32f103xb.o(.text)
    EXTI1_IRQHandler                         0x080001b3   Thumb Code     0  startup_stm32f103xb.o(.text)
    EXTI2_IRQHandler                         0x080001b3   Thumb Code     0  startup_stm32f103xb.o(.text)
    EXTI3_IRQHandler                         0x080001b3   Thumb Code     0  startup_stm32f103xb.o(.text)
    EXTI4_IRQHandler                         0x080001b3   Thumb Code     0  startup_stm32f103xb.o(.text)
    EXTI9_5_IRQHandler                       0x080001b3   Thumb Code     0  startup_stm32f103xb.o(.text)
    FLASH_IRQHandler                         0x080001b3   Thumb Code     0  startup_stm32f103xb.o(.text)
    I2C1_ER_IRQHandler                       0x080001b3   Thumb Code     0  startup_stm32f103xb.o(.text)
    I2C1_EV_IRQHandler                       0x080001b3   Thumb Code     0  startup_stm32f103xb.o(.text)
    I2C2_ER_IRQHandler                       0x080001b3   Thumb Code     0  startup_stm32f103xb.o(.text)
    I2C2_EV_IRQHandler                       0x080001b3   Thumb Code     0  startup_stm32f103xb.o(.text)
    PVD_IRQHandler                           0x080001b3   Thumb Code     0  startup_stm32f103xb.o(.text)
    RCC_IRQHandler                           0x080001b3   Thumb Code     0  startup_stm32f103xb.o(.text)
    RTC_Alarm_IRQHandler                     0x080001b3   Thumb Code     0  startup_stm32f103xb.o(.text)
    RTC_IRQHandler                           0x080001b3   Thumb Code     0  startup_stm32f103xb.o(.text)
    SPI1_IRQHandler                          0x080001b3   Thumb Code     0  startup_stm32f103xb.o(.text)
    SPI2_IRQHandler                          0x080001b3   Thumb Code     0  startup_stm32f103xb.o(.text)
    TAMPER_IRQHandler                        0x080001b3   Thumb Code     0  startup_stm32f103xb.o(.text)
    TIM1_BRK_IRQHandler                      0x080001b3   Thumb Code     0  startup_stm32f103xb.o(.text)
    TIM1_CC_IRQHandler                       0x080001b3   Thumb Code     0  startup_stm32f103xb.o(.text)
    TIM1_TRG_COM_IRQHandler                  0x080001b3   Thumb Code     0  startup_stm32f103xb.o(.text)
    TIM1_UP_IRQHandler                       0x080001b3   Thumb Code     0  startup_stm32f103xb.o(.text)
    TIM2_IRQHandler                          0x080001b3   Thumb Code     0  startup_stm32f103xb.o(.text)
    TIM3_IRQHandler                          0x080001b3   Thumb Code     0  startup_stm32f103xb.o(.text)
    TIM4_IRQHandler                          0x080001b3   Thumb Code     0  startup_stm32f103xb.o(.text)
    USART1_IRQHandler                        0x080001b3   Thumb Code     0  startup_stm32f103xb.o(.text)
    USART2_IRQHandler                        0x080001b3   Thumb Code     0  startup_stm32f103xb.o(.text)
    USART3_IRQHandler                        0x080001b3   Thumb Code     0  startup_stm32f103xb.o(.text)
    USBWakeUp_IRQHandler                     0x080001b3   Thumb Code     0  startup_stm32f103xb.o(.text)
    USB_HP_CAN1_TX_IRQHandler                0x080001b3   Thumb Code     0  startup_stm32f103xb.o(.text)
    USB_LP_CAN1_RX0_IRQHandler               0x080001b3   Thumb Code     0  startup_stm32f103xb.o(.text)
    WWDG_IRQHandler                          0x080001b3   Thumb Code     0  startup_stm32f103xb.o(.text)
    __aeabi_memcpy                           0x080001bd   Thumb Code    36  memcpya.o(.text)
    __aeabi_memcpy4                          0x080001bd   Thumb Code     0  memcpya.o(.text)
    __aeabi_memcpy8                          0x080001bd   Thumb Code     0  memcpya.o(.text)
    __aeabi_memset                           0x080001e1   Thumb Code    14  memseta.o(.text)
    __aeabi_memset4                          0x080001e1   Thumb Code     0  memseta.o(.text)
    __aeabi_memset8                          0x080001e1   Thumb Code     0  memseta.o(.text)
    __aeabi_memclr                           0x080001ef   Thumb Code     4  memseta.o(.text)
    __aeabi_memclr4                          0x080001ef   Thumb Code     0  memseta.o(.text)
    __aeabi_memclr8                          0x080001ef   Thumb Code     0  memseta.o(.text)
    _memset$wrapper                          0x080001f3   Thumb Code    18  memseta.o(.text)
    __aeabi_fadd                             0x08000205   Thumb Code   164  fadd.o(.text)
    __aeabi_fsub                             0x080002a9   Thumb Code     6  fadd.o(.text)
    __aeabi_frsub                            0x080002af   Thumb Code     6  fadd.o(.text)
    __aeabi_fmul                             0x080002b5   Thumb Code   100  fmul.o(.text)
    __aeabi_fdiv                             0x08000319   Thumb Code   124  fdiv.o(.text)
    __aeabi_i2f                              0x08000395   Thumb Code    18  fflti.o(.text)
    __aeabi_ui2f                             0x080003a7   Thumb Code    10  ffltui.o(.text)
    __aeabi_f2iz                             0x080003b1   Thumb Code    50  ffixi.o(.text)
    __aeabi_f2uiz                            0x080003e3   Thumb Code    40  ffixui.o(.text)
    __I$use$fp                               0x0800040b   Thumb Code     0  iusefp.o(.text)
    _float_round                             0x0800040b   Thumb Code    18  fepilogue.o(.text)
    _float_epilogue                          0x0800041d   Thumb Code    92  fepilogue.o(.text)
    __scatterload                            0x08000479   Thumb Code    28  init.o(.text)
    __scatterload_rt2                        0x08000479   Thumb Code     0  init.o(.text)
    BusFault_Handler                         0x0800049d   Thumb Code     2  stm32f1xx_it.o(i.BusFault_Handler)
    CalculateSpeedMean                       0x080004a1   Thumb Code    52  main.o(i.CalculateSpeedMean)
    DebugMon_Handler                         0x080004d9   Thumb Code     2  stm32f1xx_it.o(i.DebugMon_Handler)
    HAL_GPIO_Init                            0x080004dd   Thumb Code   422  stm32f1xx_hal_gpio.o(i.HAL_GPIO_Init)
    HAL_GPIO_TogglePin                       0x080006a5   Thumb Code     8  stm32f1xx_hal_gpio.o(i.HAL_GPIO_TogglePin)
    HAL_GPIO_WritePin                        0x080006ad   Thumb Code    10  stm32f1xx_hal_gpio.o(i.HAL_GPIO_WritePin)
    HAL_GetTick                              0x080006b9   Thumb Code     6  stm32f1xx_hal.o(i.HAL_GetTick)
    HAL_IncTick                              0x080006c5   Thumb Code    12  stm32f1xx_hal.o(i.HAL_IncTick)
    HAL_Init                                 0x080006d5   Thumb Code    32  stm32f1xx_hal.o(i.HAL_Init)
    HAL_InitTick                             0x080006f9   Thumb Code    54  stm32f1xx_hal.o(i.HAL_InitTick)
    HAL_MspInit                              0x08000739   Thumb Code    58  stm32f1xx_hal_msp.o(i.HAL_MspInit)
    HAL_NVIC_SetPriority                     0x0800077d   Thumb Code    60  stm32f1xx_hal_cortex.o(i.HAL_NVIC_SetPriority)
    HAL_NVIC_SetPriorityGrouping             0x080007bd   Thumb Code    26  stm32f1xx_hal_cortex.o(i.HAL_NVIC_SetPriorityGrouping)
    HAL_RCC_ClockConfig                      0x080007e1   Thumb Code   342  stm32f1xx_hal_rcc.o(i.HAL_RCC_ClockConfig)
    HAL_RCC_GetSysClockFreq                  0x08000949   Thumb Code    74  stm32f1xx_hal_rcc.o(i.HAL_RCC_GetSysClockFreq)
    HAL_RCC_OscConfig                        0x080009b5   Thumb Code   740  stm32f1xx_hal_rcc.o(i.HAL_RCC_OscConfig)
    HAL_SYSTICK_Config                       0x08000cad   Thumb Code    40  stm32f1xx_hal_cortex.o(i.HAL_SYSTICK_Config)
    HAL_TIMEx_MasterConfigSynchronization    0x08000cd5   Thumb Code    80  stm32f1xx_hal_tim_ex.o(i.HAL_TIMEx_MasterConfigSynchronization)
    HAL_TIM_Base_Init                        0x08000d25   Thumb Code    54  stm32f1xx_hal_tim.o(i.HAL_TIM_Base_Init)
    HAL_TIM_Base_MspInit                     0x08000d5d   Thumb Code    74  stm32f1xx_hal_msp.o(i.HAL_TIM_Base_MspInit)
    HAL_TIM_Base_Start                       0x08000db5   Thumb Code    26  stm32f1xx_hal_tim.o(i.HAL_TIM_Base_Start)
    HAL_TIM_IC_ConfigChannel                 0x08000dcf   Thumb Code   282  stm32f1xx_hal_tim.o(i.HAL_TIM_IC_ConfigChannel)
    HAL_TIM_IC_Init                          0x08000ee9   Thumb Code    54  stm32f1xx_hal_tim.o(i.HAL_TIM_IC_Init)
    HAL_TIM_IC_MspInit                       0x08000f1f   Thumb Code     2  stm32f1xx_hal_tim.o(i.HAL_TIM_IC_MspInit)
    HAL_TIM_IC_Start                         0x08000f21   Thumb Code    26  stm32f1xx_hal_tim.o(i.HAL_TIM_IC_Start)
    HAL_TIM_MspPostInit                      0x08000f3d   Thumb Code    88  stm32f1xx_hal_msp.o(i.HAL_TIM_MspPostInit)
    HAL_TIM_PWM_ConfigChannel                0x08000fa1   Thumb Code   208  stm32f1xx_hal_tim.o(i.HAL_TIM_PWM_ConfigChannel)
    HAL_TIM_PWM_Init                         0x08001071   Thumb Code    54  stm32f1xx_hal_tim.o(i.HAL_TIM_PWM_Init)
    HAL_TIM_PWM_MspInit                      0x080010a9   Thumb Code    52  stm32f1xx_hal_msp.o(i.HAL_TIM_PWM_MspInit)
    HAL_TIM_PWM_Start                        0x080010e5   Thumb Code    42  stm32f1xx_hal_tim.o(i.HAL_TIM_PWM_Start)
    HAL_TIM_ReadCapturedValue                0x08001115   Thumb Code    68  stm32f1xx_hal_tim.o(i.HAL_TIM_ReadCapturedValue)
    HAL_TIM_SlaveConfigSynchronization       0x08001159   Thumb Code    66  stm32f1xx_hal_tim.o(i.HAL_TIM_SlaveConfigSynchronization)
    HardFault_Handler                        0x0800119b   Thumb Code     2  stm32f1xx_it.o(i.HardFault_Handler)
    MemManage_Handler                        0x0800138d   Thumb Code     2  stm32f1xx_it.o(i.MemManage_Handler)
    NMI_Handler                              0x0800138f   Thumb Code     2  stm32f1xx_it.o(i.NMI_Handler)
    ResetPID                                 0x080013b1   Thumb Code    42  main.o(i.ResetPID)
    RunPID                                   0x080013e5   Thumb Code   194  main.o(i.RunPID)
    SysTick_Handler                          0x080014b1   Thumb Code    14  stm32f1xx_it.o(i.SysTick_Handler)
    SystemClock_Config                       0x080014bf   Thumb Code    66  main.o(i.SystemClock_Config)
    SystemInit                               0x08001501   Thumb Code    56  system_stm32f1xx.o(i.SystemInit)
    TIM_Base_SetConfig                       0x08001549   Thumb Code    94  stm32f1xx_hal_tim.o(i.TIM_Base_SetConfig)
    TIM_CCxChannelCmd                        0x080015b5   Thumb Code    22  stm32f1xx_hal_tim.o(i.TIM_CCxChannelCmd)
    TIM_OC2_SetConfig                        0x08001639   Thumb Code    86  stm32f1xx_hal_tim.o(i.TIM_OC2_SetConfig)
    TIM_TI1_SetConfig                        0x080017d1   Thumb Code    76  stm32f1xx_hal_tim.o(i.TIM_TI1_SetConfig)
    UsageFault_Handler                       0x08001883   Thumb Code     2  stm32f1xx_it.o(i.UsageFault_Handler)
    UserPWMSetValue                          0x08001885   Thumb Code    56  main.o(i.UserPWMSetValue)
    __scatterload_copy                       0x080018c1   Thumb Code    14  handlers.o(i.__scatterload_copy)
    __scatterload_null                       0x080018cf   Thumb Code     2  handlers.o(i.__scatterload_null)
    __scatterload_zeroinit                   0x080018d1   Thumb Code    14  handlers.o(i.__scatterload_zeroinit)
    app_get_statistics                       0x080018df   Thumb Code   100  main.o(i.app_get_statistics)
    main                                     0x080019c5   Thumb Code   240  main.o(i.main)
    osDelay                                  0x08001acd   Thumb Code    14  cmsis_os.o(i.osDelay)
    osKernelStart                            0x08001adb   Thumb Code    10  cmsis_os.o(i.osKernelStart)
    osSystickHandler                         0x08001ae5   Thumb Code    20  cmsis_os.o(i.osSystickHandler)
    osThreadCreate                           0x08001af9   Thumb Code    46  cmsis_os.o(i.osThreadCreate)
    osTimerCreate                            0x08001b29   Thumb Code    28  cmsis_os.o(i.osTimerCreate)
    osTimerStart                             0x08001b49   Thumb Code    90  cmsis_os.o(i.osTimerStart)
    pvPortMalloc                             0x080022b5   Thumb Code   210  heap_4.o(i.pvPortMalloc)
    pvTaskIncrementMutexHeldCount            0x0800238d   Thumb Code    18  tasks.o(i.pvTaskIncrementMutexHeldCount)
    pxPortInitialiseStack                    0x080023a5   Thumb Code    32  port.o(i.pxPortInitialiseStack)
    shellsort                                0x080023c9   Thumb Code    60  main.o(i.shellsort)
    uxListRemove                             0x08002405   Thumb Code    36  list.o(i.uxListRemove)
    vListInitialise                          0x08002429   Thumb Code    22  list.o(i.vListInitialise)
    vListInitialiseItem                      0x0800243f   Thumb Code     6  list.o(i.vListInitialiseItem)
    vListInsert                              0x08002445   Thumb Code    48  list.o(i.vListInsert)
    vListInsertEnd                           0x08002475   Thumb Code    24  list.o(i.vListInsertEnd)
    vPortEnterCritical                       0x0800248d   Thumb Code    54  port.o(i.vPortEnterCritical)
    vPortExitCritical                        0x080024cd   Thumb Code    34  port.o(i.vPortExitCritical)
    vPortFree                                0x080024f5   Thumb Code    88  heap_4.o(i.vPortFree)
    vPortSetupTimerInterrupt                 0x08002551   Thumb Code    26  port.o(i.vPortSetupTimerInterrupt)
    vPortValidateInterruptPriority           0x08002571   Thumb Code    74  port.o(i.vPortValidateInterruptPriority)
    vQueueAddToRegistry                      0x080025c5   Thumb Code    32  queue.o(i.vQueueAddToRegistry)
    vQueueWaitForMessageRestricted           0x080025e9   Thumb Code    68  queue.o(i.vQueueWaitForMessageRestricted)
    vTaskDelay                               0x0800262d   Thumb Code    66  tasks.o(i.vTaskDelay)
    vTaskINPC1                               0x08002679   Thumb Code   106  main.o(i.vTaskINPC1)
    vTaskINPC2                               0x080026f1   Thumb Code   122  main.o(i.vTaskINPC2)
    vTaskMissedYield                         0x0800277d   Thumb Code     8  tasks.o(i.vTaskMissedYield)
    vTaskMotor1Control                       0x08002789   Thumb Code    22  main.o(i.vTaskMotor1Control)
    vTaskMotor2Control                       0x080027a5   Thumb Code    26  main.o(i.vTaskMotor2Control)
    vTaskPlaceOnEventList                    0x080027c5   Thumb Code    44  tasks.o(i.vTaskPlaceOnEventList)
    vTaskPlaceOnEventListRestricted          0x080027f5   Thumb Code    52  tasks.o(i.vTaskPlaceOnEventListRestricted)
    vTaskPriorityInherit                     0x0800282d   Thumb Code   124  tasks.o(i.vTaskPriorityInherit)
    vTaskSetTimeOutState                     0x080028b1   Thumb Code    30  tasks.o(i.vTaskSetTimeOutState)
    vTaskStartScheduler                      0x080028d5   Thumb Code    94  tasks.o(i.vTaskStartScheduler)
    vTaskSuspendAll                          0x08002945   Thumb Code    10  tasks.o(i.vTaskSuspendAll)
    vTaskSwitchContext                       0x08002955   Thumb Code    82  tasks.o(i.vTaskSwitchContext)
    vTimer1Callback1                         0x080029b1   Thumb Code    50  main.o(i.vTimer1Callback1)
    xPortStartScheduler                      0x080029e9   Thumb Code   108  port.o(i.xPortStartScheduler)
    xPortSysTickHandler                      0x08002a61   Thumb Code    38  port.o(i.xPortSysTickHandler)
    xQueueGenericCreate                      0x08002a8d   Thumb Code    72  queue.o(i.xQueueGenericCreate)
    xQueueGenericReceive                     0x08002ad5   Thumb Code   362  queue.o(i.xQueueGenericReceive)
    xQueueGenericReset                       0x08002c45   Thumb Code   132  queue.o(i.xQueueGenericReset)
    xQueueGenericSend                        0x08002ccd   Thumb Code   350  queue.o(i.xQueueGenericSend)
    xQueueGenericSendFromISR                 0x08002e31   Thumb Code   188  queue.o(i.xQueueGenericSendFromISR)
    xTaskCheckForTimeOut                     0x08002eed   Thumb Code   102  tasks.o(i.xTaskCheckForTimeOut)
    xTaskCreate                              0x08002f59   Thumb Code    86  tasks.o(i.xTaskCreate)
    xTaskGetSchedulerState                   0x08002fb1   Thumb Code    22  tasks.o(i.xTaskGetSchedulerState)
    xTaskGetTickCount                        0x08002fcd   Thumb Code     6  tasks.o(i.xTaskGetTickCount)
    xTaskIncrementTick                       0x08002fd9   Thumb Code   192  tasks.o(i.xTaskIncrementTick)
    xTaskPriorityDisinherit                  0x080030a1   Thumb Code   144  tasks.o(i.xTaskPriorityDisinherit)
    xTaskRemoveFromEventList                 0x08003139   Thumb Code   108  tasks.o(i.xTaskRemoveFromEventList)
    xTaskResumeAll                           0x080031ad   Thumb Code   182  tasks.o(i.xTaskResumeAll)
    xTimerCreate                             0x08003271   Thumb Code    78  timers.o(i.xTimerCreate)
    xTimerCreateTimerTask                    0x080032c1   Thumb Code    56  timers.o(i.xTimerCreateTimerTask)
    xTimerGenericCommand                     0x08003309   Thumb Code    88  timers.o(i.xTimerGenericCommand)
    AHBPrescTable                            0x08003364   Data          16  system_stm32f1xx.o(.constdata)
    Region$$Table$$Base                      0x080033f8   Number         0  anon$$obj.o(Region$$Table)
    Region$$Table$$Limit                     0x08003418   Number         0  anon$$obj.o(Region$$Table)
    uwTickFreq                               0x20000000   Data           1  stm32f1xx_hal.o(.data)
    uwTickPrio                               0x20000004   Data           4  stm32f1xx_hal.o(.data)
    uwTick                                   0x20000008   Data           4  stm32f1xx_hal.o(.data)
    SystemCoreClock                          0x2000000c   Data           4  system_stm32f1xx.o(.data)
    pxCurrentTCB                             0x20000010   Data           4  tasks.o(.data)
    i16error_limit                           0x20000084   Data           2  main.o(.data)
    i16min_on_time                           0x20000086   Data           2  main.o(.data)
    i16max_on_time                           0x20000088   Data           2  main.o(.data)
    u16TimerCnt                              0x2000008a   Data           2  main.o(.data)
    i32error_sum_limit                       0x2000008c   Data           4  main.o(.data)
    AppPIKp                                  0x20000090   Data           4  main.o(.data)
    AppPIKi                                  0x20000094   Data           4  main.o(.data)
    AppPIKd                                  0x20000098   Data           4  main.o(.data)
    Motor1ControlHandle                      0x2000009c   Data           4  main.o(.data)
    Motor2ControlHandle                      0x200000a0   Data           4  main.o(.data)
    INPC1Handle                              0x200000a4   Data           4  main.o(.data)
    INPC2Handle                              0x200000a8   Data           4  main.o(.data)
    Timer1msHandle                           0x200000ac   Data           4  main.o(.data)
    pwm_value                                0x200000b0   Data           4  main.o(.data)
    adc_filter_counter                       0x200000b4   Data           8  main.o(.data)
    SpeedValues                              0x200000bc   Data           8  main.o(.data)
    SpeedMeanValues                          0x200000c4   Data           8  main.o(.data)
    xQueueRegistry                           0x200000cc   Data          64  queue.o(.bss)
    htim1                                    0x20001a24   Data          64  main.o(.bss)
    htim2                                    0x20001a64   Data          64  main.o(.bss)
    htim3                                    0x20001aa4   Data          64  main.o(.bss)
    __initial_sp                             0x20002000   Data           0  startup_stm32f103xb.o(STACK)



==============================================================================

Memory Map of the image

  Image Entry point : 0x080000ed

  Load Region LR_IROM1 (Base: 0x08000000, Size: 0x000034e4, Max: 0x00010000, ABSOLUTE)

    Execution Region ER_IROM1 (Exec base: 0x08000000, Load base: 0x08000000, Size: 0x00003418, Max: 0x00010000, ABSOLUTE)

    Exec Addr    Load Addr    Size         Type   Attr      Idx    E Section Name        Object

    0x08000000   0x08000000   0x000000ec   Data   RO            3    RESET               startup_stm32f103xb.o
    0x080000ec   0x080000ec   0x00000000   Code   RO         3444  * .ARM.Collect$$$$00000000  mc_w.l(entry.o)
    0x080000ec   0x080000ec   0x00000004   Code   RO         3469    .ARM.Collect$$$$00000001  mc_w.l(entry2.o)
    0x080000f0   0x080000f0   0x00000004   Code   RO         3472    .ARM.Collect$$$$00000004  mc_w.l(entry5.o)
    0x080000f4   0x080000f4   0x00000000   Code   RO         3474    .ARM.Collect$$$$00000008  mc_w.l(entry7b.o)
    0x080000f4   0x080000f4   0x00000000   Code   RO         3476    .ARM.Collect$$$$0000000A  mc_w.l(entry8b.o)
    0x080000f4   0x080000f4   0x00000008   Code   RO         3477    .ARM.Collect$$$$0000000B  mc_w.l(entry9a.o)
    0x080000fc   0x080000fc   0x00000000   Code   RO         3479    .ARM.Collect$$$$0000000D  mc_w.l(entry10a.o)
    0x080000fc   0x080000fc   0x00000000   Code   RO         3481    .ARM.Collect$$$$0000000F  mc_w.l(entry11a.o)
    0x080000fc   0x080000fc   0x00000004   Code   RO         3470    .ARM.Collect$$$$00002712  mc_w.l(entry2.o)
    0x08000100   0x08000100   0x00000096   Code   RO         3064    .emb_text           port.o
    0x08000196   0x08000196   0x00000002   PAD
    0x08000198   0x08000198   0x00000024   Code   RO            4    .text               startup_stm32f103xb.o
    0x080001bc   0x080001bc   0x00000024   Code   RO         3449    .text               mc_w.l(memcpya.o)
    0x080001e0   0x080001e0   0x00000024   Code   RO         3451    .text               mc_w.l(memseta.o)
    0x08000204   0x08000204   0x000000b0   Code   RO         3455    .text               mf_w.l(fadd.o)
    0x080002b4   0x080002b4   0x00000064   Code   RO         3457    .text               mf_w.l(fmul.o)
    0x08000318   0x08000318   0x0000007c   Code   RO         3459    .text               mf_w.l(fdiv.o)
    0x08000394   0x08000394   0x00000012   Code   RO         3461    .text               mf_w.l(fflti.o)
    0x080003a6   0x080003a6   0x0000000a   Code   RO         3463    .text               mf_w.l(ffltui.o)
    0x080003b0   0x080003b0   0x00000032   Code   RO         3465    .text               mf_w.l(ffixi.o)
    0x080003e2   0x080003e2   0x00000028   Code   RO         3467    .text               mf_w.l(ffixui.o)
    0x0800040a   0x0800040a   0x00000000   Code   RO         3483    .text               mc_w.l(iusefp.o)
    0x0800040a   0x0800040a   0x0000006e   Code   RO         3484    .text               mf_w.l(fepilogue.o)
    0x08000478   0x08000478   0x00000024   Code   RO         3486    .text               mc_w.l(init.o)
    0x0800049c   0x0800049c   0x00000002   Code   RO         3330    i.BusFault_Handler  stm32f1xx_it.o
    0x0800049e   0x0800049e   0x00000002   PAD
    0x080004a0   0x080004a0   0x00000038   Code   RO         3144    i.CalculateSpeedMean  main.o
    0x080004d8   0x080004d8   0x00000002   Code   RO         3331    i.DebugMon_Handler  stm32f1xx_it.o
    0x080004da   0x080004da   0x00000002   PAD
    0x080004dc   0x080004dc   0x000001c8   Code   RO         1293    i.HAL_GPIO_Init     stm32f1xx_hal_gpio.o
    0x080006a4   0x080006a4   0x00000008   Code   RO         1296    i.HAL_GPIO_TogglePin  stm32f1xx_hal_gpio.o
    0x080006ac   0x080006ac   0x0000000a   Code   RO         1297    i.HAL_GPIO_WritePin  stm32f1xx_hal_gpio.o
    0x080006b6   0x080006b6   0x00000002   PAD
    0x080006b8   0x080006b8   0x0000000c   Code   RO         1001    i.HAL_GetTick       stm32f1xx_hal.o
    0x080006c4   0x080006c4   0x00000010   Code   RO         1005    i.HAL_IncTick       stm32f1xx_hal.o
    0x080006d4   0x080006d4   0x00000024   Code   RO         1006    i.HAL_Init          stm32f1xx_hal.o
    0x080006f8   0x080006f8   0x00000040   Code   RO         1007    i.HAL_InitTick      stm32f1xx_hal.o
    0x08000738   0x08000738   0x00000044   Code   RO         3393    i.HAL_MspInit       stm32f1xx_hal_msp.o
    0x0800077c   0x0800077c   0x00000040   Code   RO         1459    i.HAL_NVIC_SetPriority  stm32f1xx_hal_cortex.o
    0x080007bc   0x080007bc   0x00000024   Code   RO         1460    i.HAL_NVIC_SetPriorityGrouping  stm32f1xx_hal_cortex.o
    0x080007e0   0x080007e0   0x00000168   Code   RO         1153    i.HAL_RCC_ClockConfig  stm32f1xx_hal_rcc.o
    0x08000948   0x08000948   0x0000006c   Code   RO         1162    i.HAL_RCC_GetSysClockFreq  stm32f1xx_hal_rcc.o
    0x080009b4   0x080009b4   0x000002f8   Code   RO         1165    i.HAL_RCC_OscConfig  stm32f1xx_hal_rcc.o
    0x08000cac   0x08000cac   0x00000028   Code   RO         1464    i.HAL_SYSTICK_Config  stm32f1xx_hal_cortex.o
    0x08000cd4   0x08000cd4   0x00000050   Code   RO          774    i.HAL_TIMEx_MasterConfigSynchronization  stm32f1xx_hal_tim_ex.o
    0x08000d24   0x08000d24   0x00000036   Code   RO          128    i.HAL_TIM_Base_Init  stm32f1xx_hal_tim.o
    0x08000d5a   0x08000d5a   0x00000002   PAD
    0x08000d5c   0x08000d5c   0x00000058   Code   RO         3395    i.HAL_TIM_Base_MspInit  stm32f1xx_hal_msp.o
    0x08000db4   0x08000db4   0x0000001a   Code   RO          131    i.HAL_TIM_Base_Start  stm32f1xx_hal_tim.o
    0x08000dce   0x08000dce   0x0000011a   Code   RO          158    i.HAL_TIM_IC_ConfigChannel  stm32f1xx_hal_tim.o
    0x08000ee8   0x08000ee8   0x00000036   Code   RO          161    i.HAL_TIM_IC_Init   stm32f1xx_hal_tim.o
    0x08000f1e   0x08000f1e   0x00000002   Code   RO          163    i.HAL_TIM_IC_MspInit  stm32f1xx_hal_tim.o
    0x08000f20   0x08000f20   0x0000001a   Code   RO          164    i.HAL_TIM_IC_Start  stm32f1xx_hal_tim.o
    0x08000f3a   0x08000f3a   0x00000002   PAD
    0x08000f3c   0x08000f3c   0x00000064   Code   RO         3396    i.HAL_TIM_MspPostInit  stm32f1xx_hal_msp.o
    0x08000fa0   0x08000fa0   0x000000d0   Code   RO          194    i.HAL_TIM_PWM_ConfigChannel  stm32f1xx_hal_tim.o
    0x08001070   0x08001070   0x00000036   Code   RO          197    i.HAL_TIM_PWM_Init  stm32f1xx_hal_tim.o
    0x080010a6   0x080010a6   0x00000002   PAD
    0x080010a8   0x080010a8   0x0000003c   Code   RO         3398    i.HAL_TIM_PWM_MspInit  stm32f1xx_hal_msp.o
    0x080010e4   0x080010e4   0x00000030   Code   RO          201    i.HAL_TIM_PWM_Start  stm32f1xx_hal_tim.o
    0x08001114   0x08001114   0x00000044   Code   RO          208    i.HAL_TIM_ReadCapturedValue  stm32f1xx_hal_tim.o
    0x08001158   0x08001158   0x00000042   Code   RO          209    i.HAL_TIM_SlaveConfigSynchronization  stm32f1xx_hal_tim.o
    0x0800119a   0x0800119a   0x00000002   Code   RO         3332    i.HardFault_Handler  stm32f1xx_it.o
    0x0800119c   0x0800119c   0x00000098   Code   RO         3146    i.MX_GPIO_Init      main.o
    0x08001234   0x08001234   0x0000008c   Code   RO         3147    i.MX_TIM1_Init      main.o
    0x080012c0   0x080012c0   0x00000064   Code   RO         3148    i.MX_TIM2_Init      main.o
    0x08001324   0x08001324   0x00000068   Code   RO         3149    i.MX_TIM3_Init      main.o
    0x0800138c   0x0800138c   0x00000002   Code   RO         3333    i.MemManage_Handler  stm32f1xx_it.o
    0x0800138e   0x0800138e   0x00000002   Code   RO         3334    i.NMI_Handler       stm32f1xx_it.o
    0x08001390   0x08001390   0x00000020   Code   RO         1466    i.NVIC_SetPriority  stm32f1xx_hal_cortex.o
    0x080013b0   0x080013b0   0x00000034   Code   RO         3150    i.ResetPID          main.o
    0x080013e4   0x080013e4   0x000000cc   Code   RO         3151    i.RunPID            main.o
    0x080014b0   0x080014b0   0x0000000e   Code   RO         3335    i.SysTick_Handler   stm32f1xx_it.o
    0x080014be   0x080014be   0x00000042   Code   RO         3152    i.SystemClock_Config  main.o
    0x08001500   0x08001500   0x00000048   Code   RO         1882    i.SystemInit        system_stm32f1xx.o
    0x08001548   0x08001548   0x0000006c   Code   RO          212    i.TIM_Base_SetConfig  stm32f1xx_hal_tim.o
    0x080015b4   0x080015b4   0x00000016   Code   RO          213    i.TIM_CCxChannelCmd  stm32f1xx_hal_tim.o
    0x080015ca   0x080015ca   0x00000014   Code   RO          219    i.TIM_ETR_SetConfig  stm32f1xx_hal_tim.o
    0x080015de   0x080015de   0x00000002   PAD
    0x080015e0   0x080015e0   0x00000058   Code   RO          221    i.TIM_OC1_SetConfig  stm32f1xx_hal_tim.o
    0x08001638   0x08001638   0x0000005c   Code   RO          222    i.TIM_OC2_SetConfig  stm32f1xx_hal_tim.o
    0x08001694   0x08001694   0x00000058   Code   RO          223    i.TIM_OC3_SetConfig  stm32f1xx_hal_tim.o
    0x080016ec   0x080016ec   0x00000044   Code   RO          224    i.TIM_OC4_SetConfig  stm32f1xx_hal_tim.o
    0x08001730   0x08001730   0x0000007c   Code   RO          225    i.TIM_SlaveTimer_SetConfig  stm32f1xx_hal_tim.o
    0x080017ac   0x080017ac   0x00000022   Code   RO          226    i.TIM_TI1_ConfigInputStage  stm32f1xx_hal_tim.o
    0x080017ce   0x080017ce   0x00000002   PAD
    0x080017d0   0x080017d0   0x00000058   Code   RO          227    i.TIM_TI1_SetConfig  stm32f1xx_hal_tim.o
    0x08001828   0x08001828   0x00000024   Code   RO          228    i.TIM_TI2_ConfigInputStage  stm32f1xx_hal_tim.o
    0x0800184c   0x0800184c   0x00000036   Code   RO          229    i.TIM_TI2_SetConfig  stm32f1xx_hal_tim.o
    0x08001882   0x08001882   0x00000002   Code   RO         3336    i.UsageFault_Handler  stm32f1xx_it.o
    0x08001884   0x08001884   0x0000003c   Code   RO         3153    i.UserPWMSetValue   main.o
    0x080018c0   0x080018c0   0x0000000e   Code   RO         3490    i.__scatterload_copy  mc_w.l(handlers.o)
    0x080018ce   0x080018ce   0x00000002   Code   RO         3491    i.__scatterload_null  mc_w.l(handlers.o)
    0x080018d0   0x080018d0   0x0000000e   Code   RO         3492    i.__scatterload_zeroinit  mc_w.l(handlers.o)
    0x080018de   0x080018de   0x00000064   Code   RO         3155    i.app_get_statistics  main.o
    0x08001942   0x08001942   0x00000002   PAD
    0x08001944   0x08001944   0x00000074   Code   RO         3156    i.app_sensor_control_filter_values  main.o
    0x080019b8   0x080019b8   0x0000000c   Code   RO         2637    i.inHandlerMode     cmsis_os.o
    0x080019c4   0x080019c4   0x000000fc   Code   RO         3157    i.main              main.o
    0x08001ac0   0x08001ac0   0x0000000c   Code   RO         2639    i.makeFreeRtosPriority  cmsis_os.o
    0x08001acc   0x08001acc   0x0000000e   Code   RO         2641    i.osDelay           cmsis_os.o
    0x08001ada   0x08001ada   0x0000000a   Code   RO         2644    i.osKernelStart     cmsis_os.o
    0x08001ae4   0x08001ae4   0x00000014   Code   RO         2677    i.osSystickHandler  cmsis_os.o
    0x08001af8   0x08001af8   0x0000002e   Code   RO         2678    i.osThreadCreate    cmsis_os.o
    0x08001b26   0x08001b26   0x00000002   PAD
    0x08001b28   0x08001b28   0x00000020   Code   RO         2689    i.osTimerCreate     cmsis_os.o
    0x08001b48   0x08001b48   0x00000060   Code   RO         2691    i.osTimerStart      cmsis_os.o
    0x08001ba8   0x08001ba8   0x00000070   Code   RO         2234    i.prvAddCurrentTaskToDelayedList  tasks.o
    0x08001c18   0x08001c18   0x000000d0   Code   RO         2235    i.prvAddNewTaskToReadyList  tasks.o
    0x08001ce8   0x08001ce8   0x00000050   Code   RO         2520    i.prvCheckForValidListAndQueue  timers.o
    0x08001d38   0x08001d38   0x00000054   Code   RO         2236    i.prvCheckTasksWaitingTermination  tasks.o
    0x08001d8c   0x08001d8c   0x00000026   Code   RO         2085    i.prvCopyDataFromQueue  queue.o
    0x08001db2   0x08001db2   0x0000006c   Code   RO         2086    i.prvCopyDataToQueue  queue.o
    0x08001e1e   0x08001e1e   0x00000014   Code   RO         2237    i.prvDeleteTCB      tasks.o
    0x08001e32   0x08001e32   0x00000002   PAD
    0x08001e34   0x08001e34   0x0000004c   Code   RO         3015    i.prvHeapInit       heap_4.o
    0x08001e80   0x08001e80   0x00000028   Code   RO         2238    i.prvIdleTask       tasks.o
    0x08001ea8   0x08001ea8   0x0000008e   Code   RO         2239    i.prvInitialiseNewTask  tasks.o
    0x08001f36   0x08001f36   0x00000002   PAD
    0x08001f38   0x08001f38   0x0000004c   Code   RO         3016    i.prvInsertBlockIntoFreeList  heap_4.o
    0x08001f84   0x08001f84   0x00000038   Code   RO         2521    i.prvInsertTimerInActiveList  timers.o
    0x08001fbc   0x08001fbc   0x0000001a   Code   RO         2087    i.prvIsQueueEmpty   queue.o
    0x08001fd6   0x08001fd6   0x00000002   PAD
    0x08001fd8   0x08001fd8   0x000000b8   Code   RO         2522    i.prvProcessReceivedCommands  timers.o
    0x08002090   0x08002090   0x000000b4   Code   RO         2523    i.prvProcessTimerOrBlockTask  timers.o
    0x08002144   0x08002144   0x00000020   Code   RO         2240    i.prvResetNextTaskUnblockTime  tasks.o
    0x08002164   0x08002164   0x00000028   Code   RO         2524    i.prvSampleTimeNow  timers.o
    0x0800218c   0x0800218c   0x0000006c   Code   RO         2525    i.prvSwitchTimerLists  timers.o
    0x080021f8   0x080021f8   0x00000028   Code   RO         3065    i.prvTaskExitError  port.o
    0x08002220   0x08002220   0x00000028   Code   RO         2526    i.prvTimerTask      timers.o
    0x08002248   0x08002248   0x0000006a   Code   RO         2088    i.prvUnlockQueue    queue.o
    0x080022b2   0x080022b2   0x00000002   PAD
    0x080022b4   0x080022b4   0x000000d8   Code   RO         3017    i.pvPortMalloc      heap_4.o
    0x0800238c   0x0800238c   0x00000018   Code   RO         2242    i.pvTaskIncrementMutexHeldCount  tasks.o
    0x080023a4   0x080023a4   0x00000024   Code   RO         3066    i.pxPortInitialiseStack  port.o
    0x080023c8   0x080023c8   0x0000003c   Code   RO         3158    i.shellsort         main.o
    0x08002404   0x08002404   0x00000024   Code   RO         2048    i.uxListRemove      list.o
    0x08002428   0x08002428   0x00000016   Code   RO         2049    i.vListInitialise   list.o
    0x0800243e   0x0800243e   0x00000006   Code   RO         2050    i.vListInitialiseItem  list.o
    0x08002444   0x08002444   0x00000030   Code   RO         2051    i.vListInsert       list.o
    0x08002474   0x08002474   0x00000018   Code   RO         2052    i.vListInsertEnd    list.o
    0x0800248c   0x0800248c   0x00000040   Code   RO         3068    i.vPortEnterCritical  port.o
    0x080024cc   0x080024cc   0x00000028   Code   RO         3069    i.vPortExitCritical  port.o
    0x080024f4   0x080024f4   0x0000005c   Code   RO         3018    i.vPortFree         heap_4.o
    0x08002550   0x08002550   0x00000020   Code   RO         3070    i.vPortSetupTimerInterrupt  port.o
    0x08002570   0x08002570   0x00000054   Code   RO         3071    i.vPortValidateInterruptPriority  port.o
    0x080025c4   0x080025c4   0x00000024   Code   RO         2092    i.vQueueAddToRegistry  queue.o
    0x080025e8   0x080025e8   0x00000044   Code   RO         2095    i.vQueueWaitForMessageRestricted  queue.o
    0x0800262c   0x0800262c   0x0000004c   Code   RO         2248    i.vTaskDelay        tasks.o
    0x08002678   0x08002678   0x00000078   Code   RO         3159    i.vTaskINPC1        main.o
    0x080026f0   0x080026f0   0x0000008c   Code   RO         3160    i.vTaskINPC2        main.o
    0x0800277c   0x0800277c   0x0000000c   Code   RO         2251    i.vTaskMissedYield  tasks.o
    0x08002788   0x08002788   0x0000001c   Code   RO         3161    i.vTaskMotor1Control  main.o
    0x080027a4   0x080027a4   0x00000020   Code   RO         3162    i.vTaskMotor2Control  main.o
    0x080027c4   0x080027c4   0x00000030   Code   RO         2253    i.vTaskPlaceOnEventList  tasks.o
    0x080027f4   0x080027f4   0x00000038   Code   RO         2254    i.vTaskPlaceOnEventListRestricted  tasks.o
    0x0800282c   0x0800282c   0x00000084   Code   RO         2256    i.vTaskPriorityInherit  tasks.o
    0x080028b0   0x080028b0   0x00000024   Code   RO         2259    i.vTaskSetTimeOutState  tasks.o
    0x080028d4   0x080028d4   0x00000070   Code   RO         2260    i.vTaskStartScheduler  tasks.o
    0x08002944   0x08002944   0x00000010   Code   RO         2262    i.vTaskSuspendAll   tasks.o
    0x08002954   0x08002954   0x0000005c   Code   RO         2263    i.vTaskSwitchContext  tasks.o
    0x080029b0   0x080029b0   0x00000038   Code   RO         3163    i.vTimer1Callback1  main.o
    0x080029e8   0x080029e8   0x00000078   Code   RO         3072    i.xPortStartScheduler  port.o
    0x08002a60   0x08002a60   0x0000002c   Code   RO         3073    i.xPortSysTickHandler  port.o
    0x08002a8c   0x08002a8c   0x00000048   Code   RO         2097    i.xQueueGenericCreate  queue.o
    0x08002ad4   0x08002ad4   0x00000170   Code   RO         2098    i.xQueueGenericReceive  queue.o
    0x08002c44   0x08002c44   0x00000088   Code   RO         2099    i.xQueueGenericReset  queue.o
    0x08002ccc   0x08002ccc   0x00000164   Code   RO         2100    i.xQueueGenericSend  queue.o
    0x08002e30   0x08002e30   0x000000bc   Code   RO         2101    i.xQueueGenericSendFromISR  queue.o
    0x08002eec   0x08002eec   0x0000006c   Code   RO         2264    i.xTaskCheckForTimeOut  tasks.o
    0x08002f58   0x08002f58   0x00000056   Code   RO         2265    i.xTaskCreate       tasks.o
    0x08002fae   0x08002fae   0x00000002   PAD
    0x08002fb0   0x08002fb0   0x0000001c   Code   RO         2269    i.xTaskGetSchedulerState  tasks.o
    0x08002fcc   0x08002fcc   0x0000000c   Code   RO         2270    i.xTaskGetTickCount  tasks.o
    0x08002fd8   0x08002fd8   0x000000c8   Code   RO         2272    i.xTaskIncrementTick  tasks.o
    0x080030a0   0x080030a0   0x00000098   Code   RO         2275    i.xTaskPriorityDisinherit  tasks.o
    0x08003138   0x08003138   0x00000074   Code   RO         2276    i.xTaskRemoveFromEventList  tasks.o
    0x080031ac   0x080031ac   0x000000c4   Code   RO         2278    i.xTaskResumeAll    tasks.o
    0x08003270   0x08003270   0x0000004e   Code   RO         2529    i.xTimerCreate      timers.o
    0x080032be   0x080032be   0x00000002   PAD
    0x080032c0   0x080032c0   0x00000048   Code   RO         2530    i.xTimerCreateTimerTask  timers.o
    0x08003308   0x08003308   0x0000005c   Code   RO         2531    i.xTimerGenericCommand  timers.o
    0x08003364   0x08003364   0x00000010   Data   RO         1883    .constdata          system_stm32f1xx.o
    0x08003374   0x08003374   0x00000054   Data   RO         3165    .constdata          main.o
    0x080033c8   0x080033c8   0x0000002e   Data   RO         3166    .conststring        main.o
    0x080033f6   0x080033f6   0x00000002   PAD
    0x080033f8   0x080033f8   0x00000020   Data   RO         3488    Region$$Table       anon$$obj.o


    Execution Region RW_IRAM1 (Exec base: 0x20000000, Load base: 0x08003418, Size: 0x00002000, Max: 0x00005000, ABSOLUTE)

    Exec Addr    Load Addr    Size         Type   Attr      Idx    E Section Name        Object

    0x20000000   0x08003418   0x0000000c   Data   RW         1013    .data               stm32f1xx_hal.o
    0x2000000c   0x08003424   0x00000004   Data   RW         1885    .data               system_stm32f1xx.o
    0x20000010   0x08003428   0x0000003c   Data   RW         2281    .data               tasks.o
    0x2000004c   0x08003464   0x00000014   Data   RW         2537    .data               timers.o
    0x20000060   0x08003478   0x00000018   Data   RW         3023    .data               heap_4.o
    0x20000078   0x08003490   0x0000000c   Data   RW         3074    .data               port.o
    0x20000084   0x0800349c   0x00000048   Data   RW         3167    .data               main.o
    0x200000cc        -       0x00000040   Zero   RW         2107    .bss                queue.o
    0x2000010c        -       0x000000f0   Zero   RW         2280    .bss                tasks.o
    0x200001fc        -       0x00000028   Zero   RW         2536    .bss                timers.o
    0x20000224        -       0x00001800   Zero   RW         3022    .bss                heap_4.o
    0x20001a24        -       0x000001d8   Zero   RW         3164    .bss                main.o
    0x20001bfc   0x080034e4   0x00000004   PAD
    0x20001c00        -       0x00000400   Zero   RW            1    STACK               startup_stm32f103xb.o


==============================================================================

Image component sizes


      Code (inc. data)   RO Data    RW Data    ZI Data      Debug   Object Name

       242         10          0          0          0      18939   cmsis_os.o
         0          0          0          0          0      10336   croutine.o
         0          0          0          0          0      12112   event_groups.o
       460         24          0         24       6144       4859   heap_4.o
       136          0          0          0          0       3498   list.o
      1838        134        130         72        472      17650   main.o
       610         70          0         12          0      11257   port.o
      1502         20          0          0         64      16561   queue.o
        36          8        236          0       1024        820   startup_stm32f103xb.o
       128         24          0         12          0       5425   stm32f1xx_hal.o
       172         14          0          0          0      25170   stm32f1xx_hal_cortex.o
       474         34          0          0          0       3513   stm32f1xx_hal_gpio.o
         0          0          0          0          0     421844   stm32f1xx_hal_gpio_ex.o
       316         44          0          0          0       2925   stm32f1xx_hal_msp.o
      1228         72          0          0          0       4298   stm32f1xx_hal_rcc.o
      1710         60          0          0          0      18363   stm32f1xx_hal_tim.o
        80          0          0          0          0       1308   stm32f1xx_hal_tim_ex.o
        26          0          0          0          0       3131   stm32f1xx_it.o
        72         16         16          4          0       1203   system_stm32f1xx.o
      2140        182          0         60        240      23655   tasks.o
       930         80          0         20         40      19082   timers.o

    ----------------------------------------------------------------------
     12134        792        416        204       7988     625949   Object Totals
         0          0         32          0          0          0   (incl. Generated)
        34          0          2          0          4          0   (incl. Padding)

    ----------------------------------------------------------------------

      Code (inc. data)   RO Data    RW Data    ZI Data      Debug   Library Member Name

         0          0          0          0          0          0   entry.o
         0          0          0          0          0          0   entry10a.o
         0          0          0          0          0          0   entry11a.o
         8          4          0          0          0          0   entry2.o
         4          0          0          0          0          0   entry5.o
         0          0          0          0          0          0   entry7b.o
         0          0          0          0          0          0   entry8b.o
         8          4          0          0          0          0   entry9a.o
        30          0          0          0          0          0   handlers.o
        36          8          0          0          0         68   init.o
         0          0          0          0          0          0   iusefp.o
        36          0          0          0          0         68   memcpya.o
        36          0          0          0          0        108   memseta.o
       176          0          0          0          0        140   fadd.o
       124          0          0          0          0         88   fdiv.o
       110          0          0          0          0        168   fepilogue.o
        50          0          0          0          0         68   ffixi.o
        40          0          0          0          0         68   ffixui.o
        18          0          0          0          0         68   fflti.o
        10          0          0          0          0         68   ffltui.o
       100          0          0          0          0         76   fmul.o

    ----------------------------------------------------------------------
       786         16          0          0          0        988   Library Totals
         0          0          0          0          0          0   (incl. Padding)

    ----------------------------------------------------------------------

      Code (inc. data)   RO Data    RW Data    ZI Data      Debug   Library Name

       158         16          0          0          0        244   mc_w.l
       628          0          0          0          0        744   mf_w.l

    ----------------------------------------------------------------------
       786         16          0          0          0        988   Library Totals

    ----------------------------------------------------------------------

==============================================================================


      Code (inc. data)   RO Data    RW Data    ZI Data      Debug   

     12920        808        416        204       7988     619549   Grand Totals
     12920        808        416        204       7988     619549   ELF Image Totals
     12920        808        416        204          0          0   ROM Totals

==============================================================================

    Total RO  Size (Code + RO Data)                13336 (  13.02kB)
    Total RW  Size (RW Data + ZI Data)              8192 (   8.00kB)
    Total ROM Size (Code + RO Data + RW Data)      13540 (  13.22kB)

==============================================================================

