:020000040800F2
:10000000B02300209901000863130008671100085D
:10001000611300089D040008A318000800000000F8
:1000200000000000000000000000000001010008C6
:100030009F0400080000000045010008C5140008E6
:10004000B3010008B3010008B3010008B3010008C0
:10005000B3010008B3010008B3010008B3010008B0
:10006000B3010008B3010008B3010008B3010008A0
:10007000B3010008B3010008B3010008B301000890
:10008000B3010008B3010008B3010008B301000880
:10009000B3010008B3010008B3010008B301000870
:1000A000B3010008B3010008B3010008B301000860
:1000B000B3010008B3010008B3010008B301000850
:1000C000B3010008B3010008B3010008B301000840
:1000D000B3010008B3010008B3010008B301000830
:1000E000B3010008B3010008B3010008DFF80CD029
:1000F00000F0C2F90048004771190008B023002041
:10010000224B19680868B0E8F00F80F30988BFF344
:100110006F8F4FF0000080F311884EF00D0E704786
:100120000000000006480068006880F3088862B696
:1001300061B6BFF34F8FBFF36F8F00DF00BF00BF0B
:1001400008ED00E0EFF30980BFF36F8F0F4B1A68E3
:1001500020E9F00F106008B54FF0500080F31188CF
:10016000BFF34F8FBFF36F8F02F0D6FB4FF000004D
:1001700080F31188BDE8084019680868B0E8F00FFE
:1001800080F30988BFF36F8F704700BF74000020B1
:10019000EFF3058070470000064880470648004797
:1001A000FEE7FEE7FEE7FEE7FEE7FEE7FEE7FEE727
:1001B000FEE7FEE721150008ED00000840EA010314
:1001C0009B0703D009E008C9121F08C0042AFAD20D
:1001D00003E011F8013B00F8013B521EF9D27047D1
:1001E000D2B201E000F8012B491EFBD27047002279
:1001F000F6E710B513460A4604461946FFF7F0FF26
:10020000204610BDF0B480EA0102D40F4200B2EBE8
:10021000410F02D20246084611464A0042D0C30DA1
:10022000DDB2C1F3C752AD1A202D35DAC1F3160184
:1002300041F4000204B15242C5F1200602FA06F16F
:100240002A411044B3EBD05F23D0C4B1012DA0EB01
:10025000C35009DCF0BC4FF0004202EAC352DBB2EB
:1002600000F5000000F0DAB8400000F1807000EB0B
:10027000C350A0F1807040EAD170490009E04908FC
:1002800041EAC071A0EBC35000F50000400800EB4C
:10029000C350F0BC00F0B9B86142012202EB410149
:1002A000001BF6E7F0BC704781F00041AAE780F040
:1002B0000040A7E780EA010210B502F000434000C9
:1002C00022D04A001FD0010E01EB1261C0F356008C
:1002D000C2F3560240F4000042F40002A0FB0220E8
:1002E00000047F39140400D0401C50EA124001D4AD
:1002F0004000491EC2B20C0604EBD010401C40085E
:10030000802A02D003E0002010BD20F00100002967
:1003100000DA0020184310BD30B480EA010202F078
:10032000004530F0004221F0004013D090B1C30DE1
:10033000D40DC2F31601C0F31600E41A41F4000113
:1003400040F400027D34914201D3641C00E0490076
:10035000002C02DA30BC002070474FF4000000236C
:10036000914201D3891A034340084FEA4101F7D172
:1003700051B1914202D14FF0004105E002D24FF05D
:10038000010101E06FF0010103EBC450284430BCCF
:1003900000F03BB8C10F80EAE0700844CA0796231A
:1003A000002100F03BB896230022114600F036B839
:1003B00000F0004220F00040C10DC0F3160040F4F0
:1003C00000007F2901DA00207047962903DCC1F183
:1003D0009601C84001E096398840002AF4D0404296
:1003E000704720F00040C10DC0F3160040F400003B
:1003F0007F2901DA00207047962903DCC1F19601BC
:10040000C84070479639884070470029A8BF704798
:10041000401C490008BF20F00100704710B4B0FA3A
:1004200080FC00FA0CF050EA010404BF10BC7047D5
:1004300049B1CCF1200421FA04F411FA0CF118BFEF
:10044000012121430843A3EB0C01CB1D4FEA0061BE
:100450004FEA102042BF002010BC704700EBC35091
:1004600010440029A4BF10BC7047401C490008BFBD
:1004700020F0010010BC7047064C074D06E0E06814
:1004800040F0010394E8070098471034AC42F6D3DB
:10049000FFF730FED4330008F4330008FEE770475E
:1004A0002DE9F84FDFF8A091002309F1040A0AF1C1
:1004B000040B1C464FF00F080BF1040E01270A68CD
:1004C000A7403A40BA4272D1DFF880C14D68A5EB2F
:1004D0000C0665452BD00DDC032D34D005DC35B37F
:1004E000012D19D0022D2FD11BE0112D16D0122D68
:1004F0002AD119E0B6F5881F19D006DCB6F5803F81
:1005000015D0B6F5801F1FD111E0B6F5001F0ED033
:10051000B6F5041F18D10AE0CB6815E0CB681B1DA7
:1005200012E0CB6808330FE0CB680C330CE08B682B
:100530002BB1012B4FF0080303D0476104E00423E3
:1005400002E0076100E00023FF2A01D8064601E02F
:1005500000F104064FEA840501D9A5F120053768AA
:1005600008FA05FC27EA0C0703FA05F547EA050730
:1005700037604D68ED0060D5354DAE6946F0010637
:10058000AE61AD6924F0030605F001050095314D1B
:100590007719BE68A5072D0F08FA05FC26EA0C0698
:1005A000DFF8B4C0604503D14FF0000C17E044E021
:1005B000DFF8A8C0604502D14FF0010C0FE0DFF872
:1005C000A0C0604502D14FF0020C08E0DFF894C0F3
:1005D000604502D14FF0030C01E04FF0040C0CFA1F
:1005E00005FC4CEA060CC7F808C04D68D9F8006055
:1005F000ED034D4601D5164300E096432E604D684D
:10060000DAF80060AD03554601D5164300E0964385
:100610002E604D68DBF80060ED025D4601D51643A3
:1006200000E096432E604D68DEF80060AD0275462E
:1006300001D5164300E096432E60641C102CFFF495
:100640003DAFBDE8F88F000000040140000011102C
:10065000001002400000014000080140000C014071
:100660000010014000140140C2684A40C260704757
:100670000AB1016170470904FBE700000148806886
:10068000704700006400002002488168027811442D
:100690008160704764000020074810B5016841F090
:1006A00010010160032000F06BF80F2000F006F845
:1006B00000F024F8002010BD0020024070B50D4D60
:1006C00004464FF47A712878B1FBF0F00A490968C2
:1006D000B1FBF0F000F0CCFA48B9102C07D20022A0
:1006E0002146501E00F02CF800206C6070BD0120E7
:1006F00070BD000064000020700000200E4808B5A6
:10070000816941F001018161816901F0010100917C
:10071000C16941F08051C161C069002200F0805080
:1007200000900F21901E00F00BF80449486820F05B
:10073000E060486008BD0000001002400000014079
:10074000F0B40E4B1B68C3F30223C3F10704042C5F
:1007500000D904241D1D072D01D2002300E0DB1E5B
:10076000012606FA04F56D1E0D409D409E40761E42
:10077000164045EA0601F0BC00F0F4BD0CED00E0C7
:10078000064A00F0070110684FF6FF03184040EAE0
:100790000120034908431060704700000CED00E0A1
:1007A0000000FA052DE9F047DFF8508104460E46B7
:1007B000D8F8000000F00700B0420CD2D8F80010C2
:1007C00021F007013143C8F80010D8F8000000F00C
:1007D0000700B0426DD12068494F810712D540070C
:1007E00003D5786840F4E06078602078000703D58E
:1007F000786840F4605078607868A16820F0F00074
:10080000084378602078C00742D06068012816D07D
:100810003968022816D0890700294ADA796821F058
:10082000030101437960FFF729FF0546606841F243
:10083000883101280ED00228894617D024E0396873
:100840008903E9E78901E7E7FFF718FF411B4945FD
:1008500001D916E089467868C0F381000128F3D1F8
:1008600016E0FFF70BFF411B49450AD87868C0F333
:1008700081000228F5D10BE0FFF700FF411B49453D
:1008800002D90320BDE8F087786810F00C0FF3D18F
:10089000D8F80010404601F00701B1420BD90168B9
:1008A00021F0070131430160006800F00700B04209
:1008B00001D00120E6E72078400705D57868E16897
:1008C00020F4E060084378602078000706D5786857
:1008D000216920F4605040EAC100786000F016F809
:1008E0007968084AC1F30311515CC84006490860A1
:1008F0000F20FFF7E3FE0020C4E7000000200240C5
:1009000000100240943300087000002012A085B04F
:100910000FC88DE80F0014A0144B006804905968AC
:10092000134801F00C02042A10D0082A0ED1C1F39A
:100930008342C9031DF802000AD5596804AAC1F30D
:100940004041515C0A4A5043B0FBF1F005B070479A
:1009500008494843FAE700000203040506070809AE
:100960000A0B0C0D0E0F10100102000000100240C7
:1009700000127A0000093D002DE9F84F0446007886
:10098000B64DC00747D06868C0F38100012807D082
:100990006868C0F38100022809D16868C00306D5E1
:1009A0002868800337D5606800286ED033E060681F
:1009B000B0F5803F0BD010B1B0F5A02F11D0286852
:1009C00020F480302860286820F4802002E0286825
:1009D00040F480302860606888B1FFF74FFE06461B
:1009E00009E0286840F480202860F0E7FFF746FE21
:1009F000801B642873D828688003F7D50BE0FFF7C5
:100A00003DFE064604E0FFF739FE801B6428F1D85E
:100A100028688003F7D42078DFF8448280074FF0FD
:100A2000010A4FF0000939D5686810F00C0F07D0A3
:100A30006868C0F38100022809D16868C00306D441
:100A40002868800713D5206901281ED10FE020698E
:100A5000A8B1C8F800A0FFF711FE064604E0FFF7B2
:100A60000DFE801B0228C5D828688007F7D52868A6
:100A7000616920F0F80040EAC10028600EE0C8F883
:100A80000090FFF7FBFD064605E0E5E0FFF7F6FD09
:100A9000801B022823D828688007F7D42078000715
:100AA0002CD57049A069D8B1C1F800A0FFF7E6FDC8
:100AB000064604E0FFF7E2FD801B02280FD8686AB3
:100AC0008007F7D568484FF4FA510068B0FBF1F0A1
:100AD000009000BF0098411E0091FAD20EE07CE029
:100AE000C1F80090FFF7CAFD064604E0FFF7C6FD17
:100AF000801B022871D8686A8007F7D420784007E5
:100B00005BD5E8690027C00008D4E86940F0805050
:100B1000E861E869012700F08050009053480168BF
:100B2000C90511D40168834641F480710160FFF763
:100B3000A5FD064604E0FFF7A1FD801B64284CD804
:100B4000DBF80000C005F6D5E06801280AD008B13E
:100B5000052813D0286A20F001002862286A20F0B6
:100B6000040002E0286A40F001002862E06841F2D7
:100B7000883B88B1FFF782FD064609E0286A40F00D
:100B800004002862EEE7FFF779FD811B59455BD829
:100B9000286A8007F7D50BE0FFF770FD064604E0F2
:100BA000FFF76CFD811B59454ED8286A8007F7D4A2
:100BB0001FB1E86920F08050E861E069A8B3696876
:100BC000C1F38101022947D00228484606D0C8F85F
:100BD0006000FFF753FD044639E035E04746C8F8AA
:100BE0006000FFF74BFD064604E0FFF747FD801B62
:100BF000022829D828688001F7D4206AB0F5803F00
:100C000005D16868A16820F4003008436860D4E921
:100C100008010843696821F4741108436860C7F843
:100C200060A0FFF72BFD044605E013E0FFF726FD6B
:100C3000001B022808D828688001F7D50AE0FFF7D2
:100C40001DFD001B022802D90320BDE8F88F28688B
:100C50008001F4D40020F8E70120F6E700100240FC
:100C600000004242800442427000002000700040B8
:100C700010B5401EB0F1807F01D3012010BD4FF0B0
:100C8000E02460610F21601700F06CFB0020A06180
:100C900007202061002010BD30B590F83C20012ACB
:100CA00020D0012380F83C30022280F83D200268E9
:100CB000546824F070045460026854680D682C4332
:100CC00054600268946824F0800494600268946818
:100CD00049680C43946080F83D30002180F83C1056
:100CE000084630BD022030BD10B5040003D094F892
:100CF0003D0010B107E0012010BD002084F83C0049
:100D0000204600F00DF8022084F83D00211D2068E7
:100D100000F02AFC012084F83D00002010BD0000F6
:100D200000B585B000210091019102910391006806
:100D30000E49884217D10E48816941F400618161F2
:100D4000816901F400610491816941F004018161CC
:100D50008069694600F0040004904FF480700090B0
:100D60000448FFF79DFB05B000BD0000002C0140CA
:100D70000010024000080140022180F83D10016887
:100D80000A6842F001020A60012180F83D1000204B
:100D900070472DE9F041044690F83C000D460128CB
:100DA0003BD0012684F83C60022084F83D009AB3D1
:100DB000042A44D02068082A53D0D5E90027E968DE
:100DC000036A23F480530362D0F81CC0036A2CF436
:100DD000407C4CEA07274FF6FF7C27F470470CEA6B
:100DE00001313943770323F4005307EA02321A43EF
:100DF000C16102622068C16921F44061C16120685B
:100E0000C169AA6841EA0221C16184F83D600020FD
:100E100084F83C00BDE8F08101E00220FAE7D5E962
:100E20000012EB68206800F0E3FC2068816921F083
:100E30000C01816120688169AA6811430FE0D5E93E
:100E40000012EB68206800F011FD2068816921F430
:100E50004061816120688169AA6841EA022181615B
:100E6000D3E7D5E9002C2F7B016A21F48071016260
:100E7000C169036A21F0030141EA0C0121F0F00C81
:100E800039074FF400774CEA116123F4007307EA45
:100E900002221A43C16102622068C16921F00C017B
:100EA000C1612068C169AA681143ADE710B50400AB
:100EB00003D094F83D0010B107E0012010BD0020E0
:100EC00084F83C00204600F00CF8022084F83D0035
:100ED000211D206800F048FB012084F83D0000201F
:100EE00010BD704710B504460068012200F072FB87
:100EF0002068016841F001010160002010BD000080
:100F000010B586B000210091019102910391016812
:100F1000134A02231348B1F1804F13D0124CA1425F
:100F20000ED1916941F0040191619169039301F03F
:100F300004010491C021CDE900136946FFF7B0FA1E
:100F400006B010BD916941F004019161916901F011
:100F5000040104910C21CDE9001303210391ECE776
:100F600000100240000801400004004070B5044633
:100F700090F83C000D4601280DD0012684F83C6015
:100F8000022084F83D0042B1042A18D0082A2AD051
:100F90000C2A4DD139E0022070BD206800F030FBF2
:100FA0002068816941F0080181612068816921F030
:100FB00004018161206881692A69114311E0206878
:100FC00000F04AFB2068816941F40061816120687A
:100FD000816921F480618161206881692A6941EA1F
:100FE0000221816124E0206800F064FB2068C1696F
:100FF00041F00801C1612068C16921F00401C161AB
:101000002068C1692A69114311E0206800F07EFB65
:101010002068C16941F40061C1612068C16921F49F
:101020008061C1612068C1692A6941EA0221C16108
:1010300084F83D60002084F83C0070BD10B50400C9
:1010400003D094F83D0010B107E0012010BD00204E
:1010500084F83C00204600F00DF8022084F83D00A2
:10106000211D206800F080FA012084F83D00002056
:1010700010BD000008B500680B49B0F1804F0BD0DF
:101080000A4A904207D1C86940F00200C861C869A5
:1010900000F00200009008BDC86940F00100C8617E
:1010A000C86900F00100F5E70010024000040040AC
:1010B00010B504460068012200F08CFA0749206848
:1010C000884203D1416C41F40041416420680168C9
:1010D00041F001010160002010BD0000002C014022
:1010E00090F83C300022012B0AD0012380F83C30DC
:1010F00041B1042909D008290AD00C290DD10AE0F0
:101100000220704701684A6B07E001688A6B04E0BF
:101110000168CA6B01E001680A6C002180F83C108C
:101120001046704770B5044690F83C00012818D06E
:10113000012584F83C50022084F83D00204600F050
:1011400007FB2068C16821F04001C1602068C168C8
:1011500021F48041C16084F83D50002084F83C00B7
:1011600070BD022070BDFEE72DE9F04385B000247C
:1011700020480094019402940394816941F0100185
:101180008161816901F010010491816941F00401DC
:101190008161816901F004010491816941F00801D4
:1011A00081618069DFF8508000F008004FF400563C
:1011B0000490002231464046FFF75AFADFF83C908F
:1011C000002231464846FFF753FA012702256946B7
:1011D0004046CDE90245CDE90067FFF761F9694670
:1011E0004846CDE90245CDE90067FFF759F905B05A
:1011F000BDE8F0830010024000100140000C0140E7
:1012000010B58CB0142106A8FEF7F1FF00241F488A
:10121000009401940294039404941B490594016082
:1012200040F27F21C0E901144FF47A71C0E9031440
:1012300044618461FFF758FD1448FFF737FE04202E
:1012400006905020CDE9070406A910480A94FFF73C
:1012500069FF009469460D480194FFF71DFD0120C8
:10126000CDE902400494002202A908480594FFF742
:1012700090FD022002900390042202A90348FFF788
:1012800088FD0CB010BD0000002C0140E8000020DB
:1012900010B58AB0002407941C2168460894FEF714
:1012A000A6FF14484FF0804101600321C0E90114FA
:1012B0004FF47A71C0E903148461FFF7BFFE07940D
:1012C00007A90C480894FFF7E7FC6020CDE900046B
:1012D00002940822694607480494FFF747FE0C224F
:1012E00069460448FFF742FE0248FFF709FE0AB0CC
:1012F00010BD00002801002010B58AB0002407941A
:101300001C2168460894FEF772FF144812490160D8
:101310003F21C0E901144FF47A71C0E903148461DC
:10132000FFF78CFE079407A90C480894FFF7B4FC5C
:101330006020CDE900040294002269460748049425
:10134000FFF714FE042269460448FFF70FFE034826
:10135000FFF7D6FD0AB010BD000400406801002070
:10136000FEE770470907090E002806DA00F00F00B3
:1013700000F1E02080F8141D704700F1E02080F8B3
:1013800000147047022811D2094A00EB80000021A6
:1013900042F8301002EBC00041608160C160054935
:1013A000CA68C2610A694262496901627047000005
:1013B000D0010020000000202DE9F047022842D291
:1013C000244A00EB800502EBC5046368EBB3224BB3
:1013D000A3F13C0853F82000461AE0683044C4E901
:1013E0000260D8F80810884202DC4942884200DADC
:1013F000E1609146E068FEF7CDFF616AFEF75AFFB3
:1014000007463046FEF7C6FFE169FEF753FF39464F
:10141000FEF7F8FEFEF7CCFFB8F90010434688420D
:1014200002DC4942884200DA084659F8351008447F
:1014300049F835009988884203D8B8F802108842E4
:1014400001D249F83510BDE8F087FFE7002042F8E7
:101450003500F8E7D00100203C00002070B51749A6
:1014600000EB800201EBC201154C4B6854F82010D0
:101470005A1A642A02DA12F1640F1DDC104D083585
:1014800005F1080655F82020521C45F8202056F892
:101490002060B24210D38B4201D3643100E0643942
:1014A00044F820100A4641F664118A4201D944F8F2
:1014B0002010002145F8201070BD0000D001002050
:1014C0003C00002010B5FFF7DFF8BDE8104000F049
:1014D00001BB30B58FB028216846FEF788FE142185
:1014E0000AA8FEF784FE0224012004900094102034
:1014F000059000254FF46010CDE908500794684628
:10150000FFF73AFA0AA90F2081E8310060020D9036
:101510000E9002210AA8FFF745F90FB030BD000078
:101520000D48016841F00101016041680B4A11401A
:10153000416001680A4A11400160016821F480217C
:101540000160416821F4FE0141604FF41F01816098
:101550000449C00308607047001002400000FFF813
:10156000FFFFF6FE08ED00E0F0B50268164C174DDF
:10157000174E4FF08047A04205D0B84203D0A84292
:1015800001D0B04203D122F070034A681A43A0424E
:1015900005D0B84203D0A84201D0B04203D122F412
:1015A0004073CA681A434B6922F0800213430360F8
:1015B0008A68C2620A688262A04201D10969016335
:1015C00001214161F0BD0000002C014000040040F9
:1015D0000008004010B50123046A8B409C4304625C
:1015E000036A8A401343036210BD10B5846842EA5F
:1015F000032224F47F440A432243826010BD00008A
:1016000030B5026A22F001020262036A426884690C
:1016100024F073050C682C4323F002058B682B43E0
:101620000C4DA84206D123F00805CB6843EA050318
:1016300023F0040307D14D6922F4407245EA020504
:101640008A6942EA05024260846149684163036233
:1016500030BD0000002C014030B5026A22F01002BB
:101660000262026A436884690D6824F4E64444EA2D
:1016700005248D6822F0200242EA05120C4DA84292
:1016800006D1CD6822F0800242EA051222F0400223
:1016900007D14D6923F4406343EA85038D6943EA2A
:1016A00085034360846149688163026230BD000044
:1016B000002C014030B5026A22F480720262036A93
:1016C0004268C46923F4007324F073050C682C434A
:1016D0008D6843EA05230C4DA84206D1CD6823F45A
:1016E000006343EA052323F4806307D14D6922F4A4
:1016F000405242EA05128D6942EA05124260C46115
:101700004968C163036230BD002C014030B5026AF4
:1017100022F480520262036A4268C4690D6824F4AC
:10172000E64444EA05248D6823F4005343EA053374
:10173000064DA84204D14D6922F4804242EA851246
:101740004260C46149680164036230BD002C0140FD
:1017500030B40268936823F070044B68234323F08D
:1017600007040B68234393604A6812F00F0F1FD1E0
:101770001211082A1CD2DFE802F01B1B1B1B0B1DD9
:1017800023040B69D1E90221006830BCFFF72DBFAB
:101790000268146A136A23F00103136202689369F2
:1017A000096923F0F00343EA0111916100680462C2
:1017B00030BC70470A698968006830BC00F006B820
:1017C0000A698968006830BC00F03EB810B5046A48
:1017D000036A23F001030362836923F0F00343EA01
:1017E000021324F00A020A438361026210BD000062
:1017F00070B5046A24F0010404628469056A0F4E1E
:10180000B04208D0B0F1804F05D00D4EB04202D0AA
:101810000C4EB04203D124F00304144301E044F021
:1018200001041A0724F0F00444EA126225F00A03C6
:1018300001F00A0119438261016270BD002C014070
:10184000000400400008004010B5036A23F01003B4
:1018500003628469036A24F4704444EA023223F088
:10186000A00343EA01118261016210BD30B5046A30
:1018700024F0100404628569046A25F4407545EA81
:10188000022222F470454FF6FF7202EA033224F07E
:10189000A0032A43A02404EA0111194382610162D2
:1018A00030BDFEE700B587B06021CDE90010002013
:1018B00002900490082269460848FFF757FB0C2263
:1018C00069460648FFF752FB08210448FFF7F0FB82
:1018D0000C210248FFF7ECFB07B000BD28010020F7
:1018E00002E008C8121F08C1002AFAD170477047E9
:1018F000002001E001C1121F002AFBD17047F0B5A2
:101900000C46054601461E461746204600F054FD8B
:10191000600805EB800155F8200051F8041C2A46A8
:1019200008444008386000210120631E03E052F89B
:101930002070401C39449842F9D3A01EB1FBF0F34B
:10194000002101203360661E05E055F82020D21AE0
:1019500002FB0211401CB042F7D3E41EB1FBF4F0CD
:10196000F0BDEFF30580002800D001207047000093
:1019700096B0FEF791FEFFF7ACFDFFF7F5FBFFF722
:101980003FFCFFF785FCFFF7B7FC00214048FFF75D
:10199000A9FA04213E48FFF7A5FA08213C48FFF7C1
:1019A000A1FA0C213A48FFF79DFA3948FFF7E4F90C
:1019B000374808214030FFF77BFB35480C21403089
:1019C000FFF776FB324800218030FFF771FB30488B
:1019D00004218030FFF76CFB2E4C2D480023E830AB
:1019E000636343601846FFF7CDFC2C482A492F4D0E
:1019F00001602B4941602B494161C0E902132A482B
:101A0000A063286814900022012114A800F084F833
:101A1000E062686815900022012115A800F07CF8AA
:101A200020630121E06A00F087F86421206B00F058
:101A300083F8142205F108016846FEF7BFFB002178
:101A4000684600F051F8E061142205F11C0105A878
:101A5000FEF7B4FB002105A800F046F8206214222E
:101A600005F130010AA8FEF7A9FB00210AA800F041
:101A70003BF86062142205F144010FA8FEF79EFBBB
:101A800000210FA800F030F8A06200F01EF8FEE779
:101A9000E8000020000000206F12033B200200201D
:101AA000ACC52737CDCCCC3DCDCCCC3E3C330008AB
:101AB00001460020842900D0C81C704710B500B929
:101AC000012000F0ABFD002010BD10B500F0E4FED9
:101AD000002010BD10B501F057FA012803D0BDE871
:101AE000104000F0A9BF10BD3EB504460D46B0F948
:101AF0000800FFF7DDFF02A9CDE90001208A2B468F
:101B000082B2D4E9001001F013FA012801D00020BC
:101B10003EBD02983EBD000008B500681346009027
:101B2000012905D00022012102A001F08DFB08BD92
:101B30000122F8E7000000002DE9FC414FF000050C
:101B40000C0007462E46019500D10124FFF709FF3E
:101B5000009690B101AB22460921384601F0C0FB46
:101B6000012812D1019888B10A494FF080500860CD
:101B7000BFF34F8FBFF36F8F08E00023224604218D
:101B8000384601F0ADFB012800D0FF252846BDE80E
:101B9000FC81000004ED00E02DE9F041184E0F46F5
:101BA0000446F5683068001D00F024FC38B9306840
:101BB00090F82C1001208840316981433161601C0C
:101BC00007D137B13168BDE8F0410E48091D00F07A
:101BD00049BC30682C44AC424460316805D2B06BDB
:101BE000BDE8F041091D00F025BC706B091D00F037
:101BF00021FCB06A844200D2B462BDE8F0810000EA
:101C000074000020740700202DE9F041054600F023
:101C100035FC2E4EB068401CB06030682C4F10B1BF
:101C2000706940B32DE03560B068012829D10024E7
:101C300004EB840007EB800000F0EEFB641C072C33
:101C4000F6D323488C3000F0E7FB2148A03000F0A9
:101C5000E3FB1F48B43000F0DFFB1D48C83000F044
:101C6000DBFB1B48DC3000F0D7FB19488C3070637D
:101C70001430B06305E03068E96AC06A884200D871
:101C80003560706A0121401C7062E86A32698140E7
:101C90001143316100EB800007EB8000291D00F04B
:101CA000E1FB00F00BFC706900280CD03068E96A99
:101CB000C06A884207D207494FF080500860BFF3DE
:101CC0004F8FBFF36F8FBDE8F081000074000020DC
:101CD0009806002004ED00E010B500F0CFFB0E4C9C
:101CE0002068A0B90D4800F097FB0C48143000F0B4
:101CF00093FB0A48E0601430206100220C210A2086
:101D000000F0B0FE206010B105A100F053FCBDE86A
:101D1000104000F0D3BB0000B00000208807002076
:101D2000546D72510000000070B5124E124D1CE04F
:101D300000F0EAFD306820B1002401F023FAA4B9D4
:101D400001E00124F9E700F099FBF068C468201D68
:101D500000F050FBA868401EA8606868401E6860DC
:101D600000F0ACFB204600F052F868680028DFD194
:101D700070BD0000600700207400002030B4026CC9
:101D80000B46002A0BD0C1681144C1604468A142CF
:101D900001D30168C16030BC1846FEF70FBA30BCF1
:101DA00070472DE9F041856B174604460026026C0A
:101DB00082B1C7B1E068FEF701FAE168206C091A48
:101DC000E1602268914202D26168081AE060022F45
:101DD00016D017E02068A8B9606801F04DF90646F2
:101DE000002060600EE0A068FEF7E8F9216CA068B2
:101DF0000844A0606168884204D32068A06001E0C4
:101E000005B16D1E6D1CA5633046BDE8F08110B5AF
:101E10000446006B00F066FB2046BDE8104000F071
:101E200061BB000010484FF4C051420706D0C01DEE
:101E30000D4920F00700411AC1F5C0510B4A00239B
:101E40000144C2E900030839103A21F0070111608A
:101E50004B600B600B1AC0E9001393604FF0004019
:101E60005360D06070470000B0070020D40000200D
:101E7000074E4FF08054074DFFF756FF306801289A
:101E8000FAD92C60BFF34F8FBFF36F8FF4E70000D8
:101E90009806002004ED00E02DE9F0479A46DDE9C0
:101EA000098481466FF00303206B03EB8202104428
:101EB000089D20F00706700707D0502080F3118896
:101EC000BFF34F8FBFF36F8FFEE723180A5C83F8D1
:101ED00034200A5C12B1401C1028F6D3002784F885
:101EE0004370072D00D30625E562C4E91157201D74
:101EF00000F09DFA04F1180000F099FA2461C5F190
:101F000007006462A061E76484F850705246494655
:101F1000304600F03FFA2060B8F1000F01D0C8F859
:101F20000040BDE8F087000030B5114900E01146DF
:101F30000A688242FBD34B685C18844203D1406834
:101F400018444860084643681C18944209D1084C5C
:101F5000103C2468A24209D052681A4442600A68C0
:101F600012680260814200D0086030BD0460F9E769
:101F7000D400002070B5002441600B4D00619142F7
:101F800006D8D11A8269914206D2011D286907E05C
:101F90009A4203D2994201D3012403E0011DE8686B
:101FA00000F048FA204670BDB000002010B504468D
:101FB00000F064FAA06B20B1002400F07FFA204604
:101FC00010BD0124F9E7000030B585B02B4D4BE082
:101FD0000198002848DB039C606910B1201D00F0C7
:101FE00009FA04A800F0B6F8024601980A283BD284
:101FF000DFE800F00505053A263705053A26029880
:10200000A169034601442046FFF7B4FF00B3616AAB
:1020100020468847E069012826D1002000900298D8
:10202000A169002342181946204601F059F978B9F0
:10203000502080F31188BFF34F8FBFF36F8FFEE7FF
:102040000298A06128B1811813462046FFF792FF3D
:102050000AE0502080F31188BFF34F8FBFF36F8FDA
:10206000FEE7204600F03EFA00231A4601A9286840
:1020700000F01CFD0028ABD105B030BDB000002041
:102080002DE9FC410E46054600F03EFC01A800F09B
:1020900061F80446019818B101F074F8BDE8FC81BC
:1020A000224FAEB138690068A8B30026291B32461A
:1020B000386800F091FA01F065F80028EED11C496B
:1020C0004FF080500860BFF34F8FBFF36F8FE5E78D
:1020D000A542EBD801F056F8F8682646C068C468F7
:1020E000201D00F087F9E069012810D1A0692B4676
:1020F000411932462046FFF73DFF40B1002003461C
:10210000014600902A46204601F0EAF820B1616AB3
:1021100020468847C2E707E0502080F31188BFF3CC
:102120004F8FBFF36F8FFEE70126BFE7B00000209F
:1021300004ED00E00648416B096829B1416BC968AC
:10214000C9684968816270474FF0FF31FAE70000C3
:102150007400002070B5054600F024FF064E0446CA
:10216000B068844203D200F009F8012000E00020AA
:1021700028602046B46070BDB0000020F8B5194E4C
:102180001FE0C068C4680568201D00F033F9616A6B
:1021900020468847E069012813D1A0692844A84255
:1021A00006D924616060211DF06800F043F908E061
:1021B00000200346014600902A46204601F090F890
:1021C00038B1F06801680029DBD13169C6E9031034
:1021D000F8BD502080F31188BFF34F8FBFF36F8F8E
:1021E000FEE70000B000002008484068401C4FF0A7
:1021F000500080F3118804D0BFF34F8FBFF36F8F6F
:10220000FEE7BFF34F8FBFF36F8FFEE7DC000020C8
:10221000084CE068016839B1002139B10020FFF7AE
:102220002FFFFFF7D1FEF4E70121F6E7C068006851
:10223000F5E70000B00000202DE9F041044600F071
:102240001DF994F9455004F1240609E0606A48B18B
:10225000304600F05DFF08B100F074FA6D1E6DB2FB
:10226000002DF3DC4FF0FF3684F8456000F026F9CE
:1022700000F004F994F9445004F1100709E02069D2
:1022800048B1384600F044FF08B100F05BFA6D1E1B
:102290006DB2002DF3DC84F84460BDE8F04100F03D
:1022A0000DB900002DE9F0410546002600F02CFB99
:1022B000314F386808B9FFF7B5FDF86805424BD1D2
:1022C000C5B3083568070ED005F00700C0F1080057
:1022D0000544680707D0502080F31188BFF34F8F63
:1022E000BFF36F8FFEE72DB37868854234D822495B
:1022F00010310846046801E0214604466068A8429F
:1023000002D220680028F7D13868844224D00E68B1
:102310002068086060680836411B10290FD96019D1
:10232000420708D0502080F31188BFF34F8FBFF3CE
:102330006F8FFEE710E041606560FFF7F5FD6168B3
:102340007868401A7860BA68904200D2B860F8683D
:1023500001430020C4E9000100F014FF700707D01A
:10236000502080F31188BFF34F8FBFF36F8FFEE7CC
:102370003046BDE8F0810000C40000200449086830
:1023800018B10868826C521C8264086870470000AB
:102390007400002010B5031F4FF080741C601B1FD9
:1023A00021F001011960191F024B0B6014394038EC
:1023B0000A6010BDE9210008F0B5430817E01C468B
:1023C00010E0E21A0BE0D71851F8226051F82750BC
:1023D000B54206D241F8225041F82760D21A002AAD
:1023E000F1DA641C8442ECD303EBD3725310002B5C
:1023F000E5DCF0BDD0E9013201699A60D0E9012342
:102400005A604A68824201D182684A6000220261B1
:102410000868401E0860704700F108014FF0FF3265
:10242000C0E90112C1600161002101607047002113
:102430000161704730B50C68621C02D000F10802DF
:1024400002E0026904E01A4653681D68A542FAD901
:1024500053684B6099608A60516008610168491C4B
:10246000016030BD42684A6093688B609368596030
:10247000916008610168491C01607047502080F339
:102480001188BFF34F8FBFF36F8F0A494868401C14
:10249000486001280CD10848006810F0FF0F07D0F1
:1024A000502080F31188BFF34F8FBFF36F8FFEE78B
:1024B00070470000DC00002004ED00E00849486897
:1024C00028B1401E486001D180F311887047502028
:1024D00080F31188BFF34F8FBFF36F8FFEE70000CB
:1024E000DC00002070B5002827D0144DA0F10804AE
:1024F0006068E968084207D1502080F31188BFF373
:102500004F8FBFF36F8FFEE722683AB1502080F300
:102510001188BFF34F8FBFF36F8FFEE78843606072
:1025200000F0F2F960686968084468602046FFF7C7
:10253000FBFCBDE8704000F025BE70BDC40000206B
:1025400006484FF47A710068B0FBF1F14FF0E020DB
:10255000491E4161072101617047000070000020A1
:1025600010B5FDF715FE114910280ED300F1E0203B
:1025700090F8F0030A78904207D2502080F3118837
:10258000BFF34F8FBFF36F8FFEE70948006889687C
:1025900000F4E060884207D9502080F31188BFF32F
:1025A0004F8FBFF36F8FFEE710BD0000DC000020EF
:1025B0000CED00E010B5074B002253F832401CB17F
:1025C000521C082AF9D310BD43F8321003EBC201A4
:1025D000486010BD5806002070B515460E460446EA
:1025E000FFF74CFF94F944100020491C01D184F8F6
:1025F000440094F94510491C01D184F84500FFF7C7
:102600005DFFA06B28B92A46314604F1240000F092
:10261000D3F82046BDE87040FFF70EBE10B50200AB
:1026200014D00F48006B38B1502080F31188BFF3ED
:102630004F8FBFF36F8FFEE700F066F90021104661
:10264000FFF7AAFA00F09EFD002807D105494FF0D8
:1026500080500860BFF34F8FBFF36F8F10BD000035
:102660007400002004ED00E01A4D2868016900693B
:10267000890511EA405FF8D500211648FEF730FDC4
:10268000144E0421C03630601248FEF729FD7060F8
:10269000114800681149401CB1FBF0F0FDF783FEC2
:1026A00007463068FDF77FFE01464FF07E50FDF78C
:1026B00033FE3946FDF7FEFDFDF793FE06F1B0014E
:1026C000B06041F82400641CE4B27F2CCDD9002412
:1026D000CBE70000E8000020282C014000127A001F
:1026E000154E306801690069090511EAC04FF8D537
:1026F00008211148FEF7F4FC0F4C0C21C034606136
:102700000D48FEF7EDFCA0610C4800680C49401C28
:10271000B1FBF0F0FDF747FE05466069FDF743FEAB
:1027200001464FF07E50FDF7F7FD2946FDF7C2FD4B
:10273000FDF757FEE061D4E7E8000020282C0140B7
:1027400000127A0001490120C8617047740000201E
:10275000044C208B80B2FFF7A5F80120FFF7AEF9FB
:10276000F7E7000000000020064E4FF47A744FF4A3
:1027700000552046FFF7A2F929463046FDF774FFC1
:10278000F7E700000010014010B50C4650B10949B0
:1027900009681831FFF74EFE2046BDE810400121C0
:1027A000FFF7FAB9502080F31188BFF34F8FBFF3C2
:1027B0006F8FFEE77400002070B514460D4668B1B7
:1027C0000A4909681831FFF74DFE0CB14FF0FF358B
:1027D00021462846BDE87040FFF7DEB9502080F35F
:1027E0001188BFF34F8FBFF36F8FFEE77400002097
:1027F00070B5040039D01D4DE06A2968C96A884265
:1028000033D2A069002804DB2868C06AC0F1070041
:10281000A061E06A164E00EB8000616906EB800063
:1028200081421FD1201DFFF7E5FD012150B9E06A6B
:1028300000EB800256F8222022B92A6901FA00F042
:1028400082432A612868C06AE0622A698140114394
:10285000296100EB800006EB8000211DBDE870407F
:10286000FFF700BE2868C06AE06270BD74000020F7
:102870009806002028B107490A6A0260C9684160C9
:102880007047502080F31188BFF34F8FBFF36F8FD5
:10289000FEE70000740000201CB517480024CDE9B5
:1028A00000402346802215A1164800F041FB012874
:1028B00003D100F0F1FC012809D0401C1AD15020AE
:1028C00080F31188BFF34F8FBFF36F8FFEE7502067
:1028D00080F31188BFF34F8FBFF36F8F06484FF01F
:1028E000FF312C38816201214161C460BDE81C4088
:1028F00000F066B81CBD0000A000002049444C4513
:1029000000000000711E00080248016B491C0163B1
:102910007047000074000020144A106B10B10120B1
:10292000D06170470020D06110691149B0FA80F081
:10293000C0F11F0000EB800051F820306BB101EBBB
:10294000800000F10803416849684160994201D163
:1029500049684160C86810607047502080F3118852
:10296000BFF34F8FBFF36F8FFEE7000074000020AE
:10297000980600200FB50020FEF770FD03A8009018
:10298000094802AB01AA7F21FEF7B9FF0749019A66
:10299000086800EB40001044800808600298083185
:1029A00000EB400008600FBD5C02002054000020D6
:1029B000024801680020FEF7FFBC00005C00002018
:1029C0001CB51A4908780190FF20087008788DF826
:1029D00000009DF80000164A00F05000107007201B
:1029E000906007E09068401E90609DF800004000F5
:1029F0008DF800009DF800000006F3D4107A000264
:102A000000F4E0609060019808700A48016841F4A1
:102A100070010160016841F070410160FFF790FDB5
:102A200000205060FDF77EFB00201CBD00E400E0AC
:102A3000DC00002020ED00E010B5502080F311886C
:102A4000BFF34F8FBFF36F8F00F0B2FA18B1044994
:102A50004FF080500860002080F3118810BD000006
:102A600004ED00E070B50E46050013D0D6B105FBAD
:102A700006F04830FFF716FC040009D004F14801C5
:102A800020468EB10160C0E90F56012100F0C6F862
:102A9000204670BD502080F31188BFF34F8FBFF3E5
:102AA0006F8FFEE70020E4E70060ECE72DE9FF4FC1
:102AB00083B09B468A4604004FF0000603D0BAF16B
:102AC000000F08D011E0502080F31188BFF34F8F22
:102AD000BFF36F8FFEE7206C38B1502080F3118870
:102AE000BFF34F8FBFF36F8FFEE700F04DFADFF8B3
:102AF00028814FF000094FF0805748B9059838B148
:102B0000502080F31188BFF34F8FBFF36F8FFEE724
:102B1000FFF7B4FCA56B45B351462046E668FFF7C6
:102B20002DF9BBF1000F13D0E660606A50B104F1DB
:102B3000240000F0EDFA28B1C8F80070BFF34F8F01
:102B4000BFF36F8FFFF7BAFC012007B0BDE8F08F2D
:102B50006D1EA563206810B9FFF710FC6060206946
:102B60000028EFD004F11000E3E7059808B11EB18A
:102B700006E0FFF7A3FC27E06846FFF77BFE01268F
:102B8000FFF79CFCFFF7C0FEFFF778FC94F94400C8
:102B9000401C01D184F8449094F94500401C01D1B7
:102BA00084F84590FFF78AFC05A9684600F08AF989
:102BB000002820460AD0FFF73FFB00F0E3FA20464A
:102BC000FFF7F4F90028A3D00020BEE7FFF7EEF9E5
:102BD000D8B1206830B9FFF751FC6068FFF708FEF4
:102BE000FFF76CFC04F124000599FFF7CDFD2046AA
:102BF000FFF722FB00F0C6FA002889D1C8F8007060
:102C0000BFF34F8FBFF36F8F82E72046FFF714FBB0
:102C100000F0B8FA7CE7000004ED00E070B50D4666
:102C2000040025D0FFF72AFCD4E90F20216802FB1D
:102C3000001161600021A1632168A1600A46D4E906
:102C40000F01401E00FB0121E16021464FF0FF30E3
:102C500001F8440F487004F110008DB1FFF7DCFB60
:102C600004F12400FFF7D8FBFFF728FC012070BD1A
:102C7000502080F31188BFF34F8FBFF36F8FFEE7B3
:102C800021690029F0D000F043FA0028ECD0044973
:102C90004FF080500860BFF34F8FBFF36F8FE3E7B3
:102CA00004ED00E02DE9FF4F83B01F468B46040082
:102CB0004FF0000603D0BBF1000F08D011E0502008
:102CC00080F31188BFF34F8FBFF36F8FFEE7206C47
:102CD00038B1502080F31188BFF34F8FBFF36F8F4F
:102CE000FEE7022F0AD1E06B012807D0502080F3C5
:102CF0001188BFF34F8FBFF36F8FFEE700F044F9E9
:102D0000DFF800914FF0000A4FF0805848B905985D
:102D100038B1502080F31188BFF34F8FBFF36F8F0E
:102D2000FEE7FFF7ABFBA06BE16B884205D3022FF8
:102D300003D00598C8B1DEB11EE03A465946204698
:102D4000FFF72FF8616A19B104F1240000F0E0F9EF
:102D500028B1C9F80080BFF34F8FBFF36F8FFFF723
:102D6000ADFB012007B0BDE8F08FFFF7A7FB21E026
:102D70006846FFF77FFD0126FFF7A0FBFFF7C4FDC4
:102D8000FFF77CFB94F94400401C01D184F844A077
:102D900094F94500401C01D184F845A0FFF78EFB53
:102DA00005A9684600F08EF830B12046FFF744FAD6
:102DB00000F0E8F90020D5E7FFF760FBA06BE16BBE
:102DC000884201D1012500E00025FFF777FB95B18E
:102DD00004F110000599FFF7D7FC2046FFF72CFA05
:102DE00000F0D0F900289CD1C9F80080BFF34F8FC4
:102DF000BFF36F8F95E72046FFF71EFA00F0C2F988
:102E00008FE7000004ED00E02DE9F0471F469046F3
:102E10008946040003D0B9F1000F08D011E050201A
:102E200080F31188BFF34F8FBFF36F8FFEE7206CE5
:102E300038B1502080F31188BFF34F8FBFF36F8FED
:102E4000FEE7022F0AD1E06B012807D0502080F363
:102E50001188BFF34F8FBFF36F8FFEE7FFF780FB43
:102E60005020EFF3118680F31188BFF34F8FBFF32B
:102E70006F8FA06BE16B884206D3022F04D0002035
:102E800086F31188BDE8F08794F945503A464946E3
:102E90002046FEF786FF681C04D06D1C84F8455060
:102EA0000120EDE7606A0028FAD004F1240000F068
:102EB0002FF90028F4D0B8F1000FF1D00121C8F8A3
:102EC0000010EDE770B50D46040019D005B3FFF70B
:102ED000D5FA164AD06829684B1C0FD02368126AAD
:102EE000934202D0626882421AD96268801A88428C
:102EF00016D2081A28602046FFF7BCFC002410E018
:102F0000502080F31188BFF34F8FBFF36F8FFEE720
:102F1000502080F31188BFF34F8FBFF36F8FFEE710
:102F20000124FFF7CBFA204670BD0000740000209A
:102F30002DE9FF5F8346DDE90E87994616468A46EE
:102F40009000FFF7AFF905001AD05420FFF7AAF957
:102F5000040012D025630021CDE90241CDE90087AC
:102F60004B46324651465846FEF796FF2046FEF73E
:102F70004BFE012004B0BDE8F09F2846FFF7B2FAEF
:102F80004FF0FF30F6E700000548416919B1006BCA
:102F900018B10020704701207047022070470000E0
:102FA000740000200148C0687047000074000020D1
:102FB0002DE9F0412E4F0026386B40B1B869401C16
:102FC000B861F86900B101263046BDE8F081FD68BE
:102FD0006D1CFD6013D1786B006838B1502080F310
:102FE0001188BFF34F8FBFF36F8FFEE7786BB96B1C
:102FF0007963B863386A401C3862FFF79BF8B86A97
:10300000DFF87080854209D3786B006880B1786BF7
:10301000C068C468606885420DD2B8623868C06A0A
:1030200000EB800158F821000128CAD90126C8E721
:103030004FF0FF30F1E7201DFFF7DCF9A06A18B16F
:1030400004F11800FFF7D6F9E06A01213A698140DE
:103050001143396100EB800108EB8100211DFFF76E
:1030600001FAE06A3968C96A8842CDD30126CBE704
:10307000740000209806002070B504004FF0000096
:1030800041D0214D29688C4207D0502080F311880F
:10309000BFF34F8FBFF36F8FFEE7A16C71B1491E75
:1030A000A164636CE26A9A422DD000292BD1201DC5
:1030B000FFF7A0F91549012240B112E0502080F33A
:1030C0001188BFF34F8FBFF36F8FFEE7E06A00EB0D
:1030D000800351F8233023B92B6902FA00F08343AF
:1030E0002B61606CE062C0F10700A061E06A2B69AF
:1030F00082401A432A6100EB800001EB8000211D11
:10310000FFF7B0F9012070BD740000209806002080
:103110002DE9F041C068C468ACB104F1180007465D
:10312000FFF768F9154D286B0126A0B13946144800
:10313000FFF798F9E06A2968C96A88421CD901201A
:10314000EE61BDE8F081502080F31188BFF34F8F0E
:10315000BFF36F8FFEE7201DFFF74CF9E06A2A6985
:1031600006FA00F111432961054900EB8000B439EA
:1031700001EB8000211DDBE70020E2E77400002066
:103180004C0700202DE9F0472C4D00242746286BE2
:1031900038B1FFF773F9286B401E2863286B40B1E4
:1031A00046E0502080F31188BFF34F8FBFF36F8F3D
:1031B000FEE7A86822490126D0B3A1F1B4098846E8
:1031C000D8F80010E9B1D8F80C00C46804F1180070
:1031D000FFF710F9201DFFF70DF9E06A2A6906FADA
:1031E00000F11143296100EB800109EB8100211DF1
:1031F000FFF738F9E06A2968C96A8842E0D3EE61CE
:10320000DEE70CB1FEF796FFAC693CB1FFF7D0FEEC
:1032100000B1EE61641EF9D10020A861E86938B1FF
:103220000849012738070860BFF34F8FBFF36F8F3E
:10323000FFF744F93846BDE8F0870000740000202D
:103240004C07002004ED00E02DE9F04707469946C1
:1032500016460D462820DDF820A0FFF723F80400CD
:103260000ED0B8464F46D1466DB1FEF735FD04F19C
:103270001801C4F8008081E8E002201DFFF7D7F8AC
:103280002046BDE8F087502080F31188BFF34F8FB0
:10329000BFF36F8FFEE700001CB5FEF71DFD0C4865
:1032A000006860B10A490220091DCDE90001C20190
:1032B000002308A10948FFF73BFE002807D1502052
:1032C00080F31188BFF34F8FBFF36F8FFEE71CBDF4
:1032D000B0000020546D7220537663001122000864
:1032E000FEB51F460300089E4FF0000013D0124D9C
:1032F0002C68002C0ED08DE80E00062915DAFFF799
:1033000043FE02284FF000030DD0002269462868D2
:10331000FFF7C8FCFEBD502080F31188BFF34F8F2C
:10332000BFF36F8FFEE73246F0E700233A46694667
:103330002046FFF769FDFEBDB0000020B12900085E
:1033400075290008B4330008512700080000000068
:103350000000000080000000C43300086927000856
:10336000FDFF00000000000080000000A433000802
:1033700069260008FDFF000000000000800000003A
:10338000AC330008E1260008FDFF0000000000004B
:1033900080000000000000000000000001020304A3
:1033A00006070809494E504331000000494E50437A
:1033B000320000004D6F746F7231436F6E74726F24
:1033C0006C0000004D6F746F7232436F6E74726FD9
:1033D0006C000000F433000800000020E80000004A
:1033E000E0180008DC340008E8000020C8220000D3
:1033F000F0180008C8000000B60300001027000005
:103400006F12033BACC5273700000000000000002E
:1034100000000000000000000000000000000000AC
:10342000000000000000000000000000000000009C
:10343000000000000000000000000000000000008C
:10344000000000000000000000000000000000007C
:10345000000000000000000001000000100000005B
:103460000000000000A24A0400000000000000006C
:10347000000000000000000000000000000000004C
:10348000000000000000000000000000000000003C
:10349000000000000000000000000000000000002C
:1034A000000000000000000000000000000000001C
:1034B000000000000000000000000000000000000C
:1034C00000000000000000000000000000000000FC
:0C34D00000000000AAAAAAAA0000000048
:04000005080000ED02
:00000001FF
